{
  "contractName": "BundleTokens",
  "abi": [
    {
      "inputs": [],
      "payable": false,
      "stateMutability": "nonpayable",
      "type": "constructor"
    },
    {
      "constant": false,
      "inputs": [
        {
          "name": "addr",
          "type": "address"
        }
      ],
      "name": "setAddr",
      "outputs": [],
      "payable": false,
      "stateMutability": "nonpayable",
      "type": "function"
    },
    {
      "constant": false,
      "inputs": [],
      "name": "stopContract",
      "outputs": [],
      "payable": false,
      "stateMutability": "nonpayable",
      "type": "function"
    },
    {
      "constant": false,
      "inputs": [],
      "name": "resumeContract",
      "outputs": [],
      "payable": false,
      "stateMutability": "nonpayable",
      "type": "function"
    },
    {
      "constant": true,
      "inputs": [],
      "name": "getUser",
      "outputs": [
        {
          "name": "user",
          "type": "uint256"
        }
      ],
      "payable": false,
      "stateMutability": "view",
      "type": "function"
    },
    {
      "constant": false,
      "inputs": [
        {
          "name": "u",
          "type": "uint256"
        }
      ],
      "name": "getSigned",
      "outputs": [
        {
          "name": "",
          "type": "uint256"
        }
      ],
      "payable": false,
      "stateMutability": "nonpayable",
      "type": "function"
    },
    {
      "constant": false,
      "inputs": [
        {
          "name": "x",
          "type": "uint256"
        }
      ],
      "name": "checkUser",
      "outputs": [
        {
          "name": "",
          "type": "uint256"
        }
      ],
      "payable": false,
      "stateMutability": "nonpayable",
      "type": "function"
    },
    {
      "constant": false,
      "inputs": [
        {
          "name": "_owner",
          "type": "address"
        }
      ],
      "name": "registerOwner",
      "outputs": [],
      "payable": false,
      "stateMutability": "nonpayable",
      "type": "function"
    },
    {
      "constant": true,
      "inputs": [],
      "name": "checkOwner",
      "outputs": [
        {
          "name": "success",
          "type": "bool"
        }
      ],
      "payable": false,
      "stateMutability": "view",
      "type": "function"
    },
    {
      "constant": true,
      "inputs": [
        {
          "name": "_bundleId",
          "type": "uint256"
        }
      ],
      "name": "getName1",
      "outputs": [
        {
          "name": "name",
          "type": "uint256"
        }
      ],
      "payable": false,
      "stateMutability": "view",
      "type": "function"
    },
    {
      "constant": true,
      "inputs": [
        {
          "name": "_bundleId",
          "type": "uint256"
        }
      ],
      "name": "getName2",
      "outputs": [
        {
          "name": "name",
          "type": "string"
        }
      ],
      "payable": false,
      "stateMutability": "view",
      "type": "function"
    },
    {
      "constant": true,
      "inputs": [],
      "name": "checksender",
      "outputs": [
        {
          "name": "",
          "type": "address"
        }
      ],
      "payable": false,
      "stateMutability": "view",
      "type": "function"
    },
    {
      "constant": false,
      "inputs": [
        {
          "name": "_mintime",
          "type": "uint256"
        },
        {
          "name": "_bonus",
          "type": "uint256"
        },
        {
          "name": "_balance1",
          "type": "uint256"
        },
        {
          "name": "_balance2",
          "type": "uint256"
        },
        {
          "name": "_token1",
          "type": "address"
        },
        {
          "name": "_token2",
          "type": "address"
        }
      ],
      "name": "registerBundle",
      "outputs": [],
      "payable": false,
      "stateMutability": "nonpayable",
      "type": "function"
    },
    {
      "constant": true,
      "inputs": [
        {
          "name": "_bundleId",
          "type": "uint256"
        }
      ],
      "name": "getBundleBonus",
      "outputs": [
        {
          "name": "b",
          "type": "uint256"
        }
      ],
      "payable": false,
      "stateMutability": "view",
      "type": "function"
    },
    {
      "constant": true,
      "inputs": [
        {
          "name": "_bundleId",
          "type": "uint256"
        }
      ],
      "name": "getBundleTime",
      "outputs": [
        {
          "name": "b",
          "type": "uint256"
        }
      ],
      "payable": false,
      "stateMutability": "view",
      "type": "function"
    },
    {
      "constant": true,
      "inputs": [
        {
          "name": "_bundleId",
          "type": "uint256"
        }
      ],
      "name": "getBundleBalance1",
      "outputs": [
        {
          "name": "b",
          "type": "uint256"
        }
      ],
      "payable": false,
      "stateMutability": "view",
      "type": "function"
    },
    {
      "constant": true,
      "inputs": [
        {
          "name": "_bundleId",
          "type": "uint256"
        }
      ],
      "name": "getBundleBalance2",
      "outputs": [
        {
          "name": "b",
          "type": "uint256"
        }
      ],
      "payable": false,
      "stateMutability": "view",
      "type": "function"
    },
    {
      "constant": true,
      "inputs": [
        {
          "name": "_bundleId",
          "type": "uint256"
        }
      ],
      "name": "checkBundleOwner",
      "outputs": [
        {
          "name": "b",
          "type": "address"
        }
      ],
      "payable": false,
      "stateMutability": "view",
      "type": "function"
    },
    {
      "constant": true,
      "inputs": [],
      "name": "getBundleCount",
      "outputs": [
        {
          "name": "",
          "type": "uint256"
        }
      ],
      "payable": false,
      "stateMutability": "view",
      "type": "function"
    },
    {
      "constant": true,
      "inputs": [
        {
          "name": "_token",
          "type": "address"
        }
      ],
      "name": "getBalance",
      "outputs": [
        {
          "name": "balance",
          "type": "uint256"
        }
      ],
      "payable": false,
      "stateMutability": "view",
      "type": "function"
    },
    {
      "constant": true,
      "inputs": [
        {
          "name": "_token",
          "type": "address"
        }
      ],
      "name": "getBalanceContract",
      "outputs": [
        {
          "name": "balance",
          "type": "uint256"
        }
      ],
      "payable": false,
      "stateMutability": "view",
      "type": "function"
    },
    {
      "constant": false,
      "inputs": [
        {
          "name": "_amount",
          "type": "uint256"
        },
        {
          "name": "_bundleid",
          "type": "uint256"
        }
      ],
      "name": "depositToken1",
      "outputs": [],
      "payable": true,
      "stateMutability": "payable",
      "type": "function"
    },
    {
      "constant": false,
      "inputs": [
        {
          "name": "_amount",
          "type": "uint256"
        },
        {
          "name": "_bundleid",
          "type": "uint256"
        }
      ],
      "name": "depositToken2",
      "outputs": [],
      "payable": true,
      "stateMutability": "payable",
      "type": "function"
    },
    {
      "constant": false,
      "inputs": [
        {
          "name": "_bundleid",
          "type": "uint256"
        }
      ],
      "name": "registerSubscriber",
      "outputs": [],
      "payable": false,
      "stateMutability": "nonpayable",
      "type": "function"
    },
    {
      "constant": true,
      "inputs": [
        {
          "name": "_bundleId",
          "type": "uint256"
        }
      ],
      "name": "getSubscriberCount",
      "outputs": [
        {
          "name": "",
          "type": "uint256"
        }
      ],
      "payable": false,
      "stateMutability": "view",
      "type": "function"
    },
    {
      "constant": false,
      "inputs": [
        {
          "name": "_bundleId",
          "type": "uint256"
        }
      ],
      "name": "unregisterSubscriber",
      "outputs": [],
      "payable": false,
      "stateMutability": "nonpayable",
      "type": "function"
    },
    {
      "constant": true,
      "inputs": [],
      "name": "getSubscriberTime",
      "outputs": [
        {
          "name": "diff",
          "type": "uint256"
        }
      ],
      "payable": false,
      "stateMutability": "view",
      "type": "function"
    },
    {
      "constant": false,
      "inputs": [
        {
          "name": "_bundleId",
          "type": "uint256"
        }
      ],
      "name": "subscriberClaim",
      "outputs": [],
      "payable": false,
      "stateMutability": "nonpayable",
      "type": "function"
    },
    {
      "constant": true,
      "inputs": [],
      "name": "checkSubscriberClaim",
      "outputs": [
        {
          "name": "success",
          "type": "bool"
        }
      ],
      "payable": false,
      "stateMutability": "view",
      "type": "function"
    }
  ],
  "bytecode": "0x608060405260008060006101000a81548160ff02191690831515021790555034801561002a57600080fd5b5060006007819055506000600881905550600060068190555033600960006101000a81548173ffffffffffffffffffffffffffffffffffffffff021916908373ffffffffffffffffffffffffffffffffffffffff160217905550612380806100936000396000f30060806040526004361061016a576000357c0100000000000000000000000000000000000000000000000000000000900463ffffffff1680630d196f801461016f5780631220c6ed146101b057806312253a6c146101f357806318a365011461020a5780632143625c1461023757806323b4cede1461026257806326d11a21146102b95780632ff35057146102fa57806334dd4de71461032957806334e6b29c146103cf578063591b9c00146104105780635a26a61b1461043a57806367963cde1461047b578063723331bb146104a6578063832880e7146104e7578063960be54a146105125780639b4b409c1461059d5780639b537d1f146105ca578063a37732881461060b578063a8c2980114610638578063c4bc5da51461068f578063cdbce03d146106a6578063d1d80fdf146106d5578063dc75a6bd14610718578063f14474cf14610759578063f5ae35c61461079a578063f8b2cb4f14610807578063ff8ba29e1461085e575b600080fd5b34801561017b57600080fd5b5061019a60048036038101908080359060200190929190505050610888565b6040518082815260200191505060405180910390f35b3480156101bc57600080fd5b506101f1600480360381019080803573ffffffffffffffffffffffffffffffffffffffff1690602001909291905050506108b1565b005b3480156101ff57600080fd5b506102086109ea565b005b34801561021657600080fd5b5061023560048036038101908080359060200190929190505050610a62565b005b34801561024357600080fd5b5061024c611062565b6040518082815260200191505060405180910390f35b34801561026e57600080fd5b5061027761106c565b604051808273ffffffffffffffffffffffffffffffffffffffff1673ffffffffffffffffffffffffffffffffffffffff16815260200191505060405180910390f35b3480156102c557600080fd5b506102e460048036038101908080359060200190929190505050611074565b6040518082815260200191505060405180910390f35b34801561030657600080fd5b5061030f611087565b604051808215151515815260200191505060405180910390f35b34801561033557600080fd5b506103546004803603810190808035906020019092919050505061116d565b6040518080602001828103825283818151815260200191508051906020019080838360005b83811015610394578082015181840152602081019050610379565b50505050905090810190601f1680156103c15780820380516001836020036101000a031916815260200191505b509250505060405180910390f35b3480156103db57600080fd5b506103fa600480360381019080803590602001909291905050506112cb565b6040518082815260200191505060405180910390f35b6104386004803603810190808035906020019092919080359060200190929190505050611309565b005b34801561044657600080fd5b5061046560048036038101908080359060200190929190505050611466565b6040518082815260200191505060405180910390f35b34801561048757600080fd5b506104906114a4565b6040518082815260200191505060405180910390f35b3480156104b257600080fd5b506104d160048036038101908080359060200190929190505050611558565b6040518082815260200191505060405180910390f35b3480156104f357600080fd5b506104fc6115f2565b6040518082815260200191505060405180910390f35b34801561051e57600080fd5b5061059b60048036038101908080359060200190929190803590602001909291908035906020019092919080359060200190929190803573ffffffffffffffffffffffffffffffffffffffff169060200190929190803573ffffffffffffffffffffffffffffffffffffffff1690602001909291905050506115fc565b005b3480156105a957600080fd5b506105c8600480360381019080803590602001909291905050506117e2565b005b3480156105d657600080fd5b506105f560048036038101908080359060200190929190505050611c32565b6040518082815260200191505060405180910390f35b34801561061757600080fd5b5061063660048036038101908080359060200190929190505050611c6d565b005b34801561064457600080fd5b50610679600480360381019080803573ffffffffffffffffffffffffffffffffffffffff169060200190929190505050611db5565b6040518082815260200191505060405180910390f35b34801561069b57600080fd5b506106a4611e9c565b005b3480156106b257600080fd5b506106bb611f14565b604051808215151515815260200191505060405180910390f35b3480156106e157600080fd5b50610716600480360381019080803573ffffffffffffffffffffffffffffffffffffffff169060200190929190505050611ff2565b005b34801561072457600080fd5b5061074360048036038101908080359060200190929190505050612036565b6040518082815260200191505060405180910390f35b34801561076557600080fd5b5061078460048036038101908080359060200190929190505050612074565b6040518082815260200191505060405180910390f35b3480156107a657600080fd5b506107c5600480360381019080803590602001909291905050506120b2565b604051808273ffffffffffffffffffffffffffffffffffffffff1673ffffffffffffffffffffffffffffffffffffffff16815260200191505060405180910390f35b34801561081357600080fd5b50610848600480360381019080803573ffffffffffffffffffffffffffffffffffffffff169060200190929190505050612110565b6040518082815260200191505060405180910390f35b61088660048036038101908080359060200190929190803590602001909291905050506121f7565b005b600080821015801561089a5750606482105b15156108a557600080fd5b60059050809050919050565b600960009054906101000a900473ffffffffffffffffffffffffffffffffffffffff1673ffffffffffffffffffffffffffffffffffffffff163373ffffffffffffffffffffffffffffffffffffffff1614151561090d57600080fd5b6000809054906101000a900460ff1615151561092857600080fd5b60006007541015801561093d57506064600754105b151561094857600080fd5b600061032a60075460648110151561095c57fe5b6002020160010160006101000a81548160ff0219169083600181111561097e57fe5b02179055508061032a60075460648110151561099657fe5b6002020160010160016101000a81548173ffffffffffffffffffffffffffffffffffffffff021916908373ffffffffffffffffffffffffffffffffffffffff16021790555060016007540160078190555050565b600960009054906101000a900473ffffffffffffffffffffffffffffffffffffffff1673ffffffffffffffffffffffffffffffffffffffff163373ffffffffffffffffffffffffffffffffffffffff16141515610a4657600080fd5b60016000806101000a81548160ff021916908315150217905550565b60008060008060008060008060009054906101000a900460ff16151515610a8857600080fd5b60008810158015610a9a575060648811155b1515610aa557600080fd5b600a88606481101515610ab457fe5b6008020160040160009054906101000a900473ffffffffffffffffffffffffffffffffffffffff169650600a88606481101515610aed57fe5b6008020160050160009054906101000a900473ffffffffffffffffffffffffffffffffffffffff1695508673ffffffffffffffffffffffffffffffffffffffff166370a08231336040518263ffffffff167c0100000000000000000000000000000000000000000000000000000000028152600401808273ffffffffffffffffffffffffffffffffffffffff1673ffffffffffffffffffffffffffffffffffffffff168152602001915050602060405180830381600087803b158015610bb257600080fd5b505af1158015610bc6573d6000803e3d6000fd5b505050506040513d6020811015610bdc57600080fd5b810190808051906020019092919050505094508573ffffffffffffffffffffffffffffffffffffffff166370a08231336040518263ffffffff167c0100000000000000000000000000000000000000000000000000000000028152600401808273ffffffffffffffffffffffffffffffffffffffff1673ffffffffffffffffffffffffffffffffffffffff168152602001915050602060405180830381600087803b158015610c8a57600080fd5b505af1158015610c9e573d6000803e3d6000fd5b505050506040513d6020811015610cb457600080fd5b81019080805190602001909291905050509350600092505b600854831015611058573373ffffffffffffffffffffffffffffffffffffffff166103f2846103e881101515610cfe57fe5b6007020160060160019054906101000a900473ffffffffffffffffffffffffffffffffffffffff1673ffffffffffffffffffffffffffffffffffffffff16141561104b576103f2836103e881101515610d5357fe5b600702016002015442039150600a88606481101515610d6e57fe5b60080201600101549050600a88606481101515610d8757fe5b60080201600001548210151561104a57600a88606481101515610da657fe5b60080201600201548510151561104957600a88606481101515610dc557fe5b600802016003015484101515611048578673ffffffffffffffffffffffffffffffffffffffff1663a9059cbb33836040518363ffffffff167c0100000000000000000000000000000000000000000000000000000000028152600401808373ffffffffffffffffffffffffffffffffffffffff1673ffffffffffffffffffffffffffffffffffffffff16815260200182815260200192505050602060405180830381600087803b158015610e7857600080fd5b505af1158015610e8c573d6000803e3d6000fd5b505050506040513d6020811015610ea257600080fd5b81019080805190602001909291905050501515610ebe57600080fd5b8573ffffffffffffffffffffffffffffffffffffffff1663a9059cbb33836040518363ffffffff167c0100000000000000000000000000000000000000000000000000000000028152600401808373ffffffffffffffffffffffffffffffffffffffff1673ffffffffffffffffffffffffffffffffffffffff16815260200182815260200192505050602060405180830381600087803b158015610f6157600080fd5b505af1158015610f75573d6000803e3d6000fd5b505050506040513d6020811015610f8b57600080fd5b81019080805190602001909291905050501515610fa757600080fd5b60026103f2846103e881101515610fba57fe5b6007020160060160006101000a81548160ff02191690836003811115610fdc57fe5b0217905550600a88606481101515610ff057fe5b60080201600101546103f2846103e88110151561100957fe5b6007020160040181905550600a8860648110151561102357fe5b60080201600101546103f2846103e88110151561103c57fe5b60070201600501819055505b5b5b5b8280600101935050610ccc565b5050505050505050565b6000600454905090565b600033905090565b6000816003819055506003549050919050565b600080600090505b600854811015611168573373ffffffffffffffffffffffffffffffffffffffff166103f2826103e8811015156110c157fe5b6007020160060160019054906101000a900473ffffffffffffffffffffffffffffffffffffffff1673ffffffffffffffffffffffffffffffffffffffff16141561115b576002600381111561111257fe5b6103f2826103e88110151561112357fe5b6007020160060160009054906101000a900460ff16600381111561114357fe5b14156111525760019150611169565b60009150611169565b808060010191505061108f565b5b5090565b6060600080600084101580156111835750606484105b151561118e57600080fd5b600a8460648110151561119d57fe5b6008020160050160009054906101000a900473ffffffffffffffffffffffffffffffffffffffff1691508190508073ffffffffffffffffffffffffffffffffffffffff166317d7de7c6040518163ffffffff167c0100000000000000000000000000000000000000000000000000000000028152600401600060405180830381600087803b15801561122e57600080fd5b505af1158015611242573d6000803e3d6000fd5b505050506040513d6000823e3d601f19601f82011682018060405250602081101561126c57600080fd5b81019080805164010000000081111561128457600080fd5b8281019050602081018481111561129a57600080fd5b81518560018202830111640100000000821117156112b757600080fd5b505092919050505092508292505050919050565b60008082101580156112dd5750606482105b15156112e857600080fd5b600a826064811015156112f757fe5b60080201600101549050809050919050565b6000600a8260648110151561131a57fe5b6008020160040160009054906101000a900473ffffffffffffffffffffffffffffffffffffffff1690508073ffffffffffffffffffffffffffffffffffffffff166323b872dd3330866040518463ffffffff167c0100000000000000000000000000000000000000000000000000000000028152600401808473ffffffffffffffffffffffffffffffffffffffff1673ffffffffffffffffffffffffffffffffffffffff1681526020018373ffffffffffffffffffffffffffffffffffffffff1673ffffffffffffffffffffffffffffffffffffffff1681526020018281526020019350505050602060405180830381600087803b15801561141b57600080fd5b505af115801561142f573d6000803e3d6000fd5b505050506040513d602081101561144557600080fd5b8101908080519060200190929190505050151561146157600080fd5b505050565b60008082101580156114785750606482105b151561148357600080fd5b600a8260648110151561149257fe5b60080201600001549050809050919050565b60008060009150600090505b600854811015611551573373ffffffffffffffffffffffffffffffffffffffff166103f2826103e8811015156114e257fe5b6007020160060160019054906101000a900473ffffffffffffffffffffffffffffffffffffffff1673ffffffffffffffffffffffffffffffffffffffff161415611544576103f2816103e88110151561153757fe5b6007020160020154420391505b80806001019150506114b0565b8191505090565b600081600581905550600960009054906101000a900473ffffffffffffffffffffffffffffffffffffffff1673ffffffffffffffffffffffffffffffffffffffff163373ffffffffffffffffffffffffffffffffffffffff1614156115c45760006005819055506115e8565b6115cc611f14565b156115de5760016005819055506115e7565b60026005819055505b5b6005549050919050565b6000600554905090565b6000809054906101000a900460ff1615151561161757600080fd5b60006004541015801561162c57506064600454105b151561163757600080fd5b85600a60045460648110151561164957fe5b600802016000018190555084600a60045460648110151561166657fe5b600802016001018190555083600a60045460648110151561168357fe5b600802016002018190555082600a6004546064811015156116a057fe5b600802016003018190555081600a6004546064811015156116bd57fe5b6008020160040160006101000a81548173ffffffffffffffffffffffffffffffffffffffff021916908373ffffffffffffffffffffffffffffffffffffffff16021790555080600a60045460648110151561171457fe5b6008020160050160006101000a81548173ffffffffffffffffffffffffffffffffffffffff021916908373ffffffffffffffffffffffffffffffffffffffff1602179055506000600a60045460648110151561176c57fe5b600802016006018190555033600a60045460648110151561178957fe5b6008020160070160006101000a81548173ffffffffffffffffffffffffffffffffffffffff021916908373ffffffffffffffffffffffffffffffffffffffff160217905550600160045401600481905550505050505050565b6000806000806000809054906101000a900460ff1615151561180357600080fd5b600085101580156118145750606485105b151561181f57600080fd5b60006008541015801561183557506103e8600854105b151561184057600080fd5b600a8560648110151561184f57fe5b6008020160040160009054906101000a900473ffffffffffffffffffffffffffffffffffffffff169350600a8560648110151561188857fe5b6008020160050160009054906101000a900473ffffffffffffffffffffffffffffffffffffffff1692508373ffffffffffffffffffffffffffffffffffffffff166370a08231336040518263ffffffff167c0100000000000000000000000000000000000000000000000000000000028152600401808273ffffffffffffffffffffffffffffffffffffffff1673ffffffffffffffffffffffffffffffffffffffff168152602001915050602060405180830381600087803b15801561194d57600080fd5b505af1158015611961573d6000803e3d6000fd5b505050506040513d602081101561197757600080fd5b810190808051906020019092919050505091508273ffffffffffffffffffffffffffffffffffffffff166370a08231336040518263ffffffff167c0100000000000000000000000000000000000000000000000000000000028152600401808273ffffffffffffffffffffffffffffffffffffffff1673ffffffffffffffffffffffffffffffffffffffff168152602001915050602060405180830381600087803b158015611a2557600080fd5b505af1158015611a39573d6000803e3d6000fd5b505050506040513d6020811015611a4f57600080fd5b81019080805190602001909291905050509050600a85606481101515611a7157fe5b600802016002015482101515611c2b57600a85606481101515611a9057fe5b600802016003015481101515611c2a57816103f26008546103e881101515611ab457fe5b6007020160000181905550806103f26008546103e881101515611ad357fe5b6007020160010181905550846103f26008546103e881101515611af257fe5b6007020160030181905550426103f26008546103e881101515611b1157fe5b600702016002018190555060006103f26008546103e881101515611b3157fe5b600702016004018190555060006103f26008546103e881101515611b5157fe5b600702016005018190555060006103f26008546103e881101515611b7157fe5b6007020160060160006101000a81548160ff02191690836003811115611b9357fe5b0217905550336103f26008546103e881101515611bac57fe5b6007020160060160016101000a81548173ffffffffffffffffffffffffffffffffffffffff021916908373ffffffffffffffffffffffffffffffffffffffff160217905550600860008154809291906001019190505550600a85606481101515611c1257fe5b60080201600601600081548092919060010191905055505b5b5050505050565b6000808210158015611c445750606482105b1515611c4f57600080fd5b600a82606481101515611c5e57fe5b60080201600601549050919050565b60008060009054906101000a900460ff16151515611c8a57600080fd5b60008210158015611c9b5750606482105b1515611ca657600080fd5b600090505b600854811015611db1573373ffffffffffffffffffffffffffffffffffffffff166103f2826103e881101515611cdd57fe5b6007020160060160019054906101000a900473ffffffffffffffffffffffffffffffffffffffff1673ffffffffffffffffffffffffffffffffffffffff161415611da457816103f2826103e881101515611d3357fe5b60070201600301541415611da357600a82606481101515611d5057fe5b60080201600601600081548092919060019003919050555060016103f2826103e881101515611d7b57fe5b6007020160060160006101000a81548160ff02191690836003811115611d9d57fe5b02179055505b5b8080600101915050611cab565b5050565b6000808290508073ffffffffffffffffffffffffffffffffffffffff166370a08231306040518263ffffffff167c0100000000000000000000000000000000000000000000000000000000028152600401808273ffffffffffffffffffffffffffffffffffffffff1673ffffffffffffffffffffffffffffffffffffffff168152602001915050602060405180830381600087803b158015611e5657600080fd5b505af1158015611e6a573d6000803e3d6000fd5b505050506040513d6020811015611e8057600080fd5b8101908080519060200190929190505050915081915050919050565b600960009054906101000a900473ffffffffffffffffffffffffffffffffffffffff1673ffffffffffffffffffffffffffffffffffffffff163373ffffffffffffffffffffffffffffffffffffffff16141515611ef857600080fd5b60008060006101000a81548160ff021916908315150217905550565b60008060009150600090505b600754811015611feb573373ffffffffffffffffffffffffffffffffffffffff1661032a82606481101515611f5157fe5b6002020160010160019054906101000a900473ffffffffffffffffffffffffffffffffffffffff1673ffffffffffffffffffffffffffffffffffffffff161415611fde5760006001811115611fa257fe5b61032a82606481101515611fb257fe5b6002020160010160009054906101000a900460ff166001811115611fd257fe5b1415611fdd57600191505b5b8080600101915050611f20565b8191505090565b80600260006101000a81548173ffffffffffffffffffffffffffffffffffffffff021916908373ffffffffffffffffffffffffffffffffffffffff16021790555050565b60008082101580156120485750606482105b151561205357600080fd5b600a8260648110151561206257fe5b60080201600201549050809050919050565b60008082101580156120865750606482105b151561209157600080fd5b600a826064811015156120a057fe5b60080201600301549050809050919050565b60008082101580156120c45750606482105b15156120cf57600080fd5b600a826064811015156120de57fe5b6008020160070160009054906101000a900473ffffffffffffffffffffffffffffffffffffffff169050809050919050565b6000808290508073ffffffffffffffffffffffffffffffffffffffff166370a08231336040518263ffffffff167c0100000000000000000000000000000000000000000000000000000000028152600401808273ffffffffffffffffffffffffffffffffffffffff1673ffffffffffffffffffffffffffffffffffffffff168152602001915050602060405180830381600087803b1580156121b157600080fd5b505af11580156121c5573d6000803e3d6000fd5b505050506040513d60208110156121db57600080fd5b8101908080519060200190929190505050915081915050919050565b6000600a8260648110151561220857fe5b6008020160050160009054906101000a900473ffffffffffffffffffffffffffffffffffffffff1690508073ffffffffffffffffffffffffffffffffffffffff166323b872dd3330866040518463ffffffff167c0100000000000000000000000000000000000000000000000000000000028152600401808473ffffffffffffffffffffffffffffffffffffffff1673ffffffffffffffffffffffffffffffffffffffff1681526020018373ffffffffffffffffffffffffffffffffffffffff1673ffffffffffffffffffffffffffffffffffffffff1681526020018281526020019350505050602060405180830381600087803b15801561230957600080fd5b505af115801561231d573d6000803e3d6000fd5b505050506040513d602081101561233357600080fd5b8101908080519060200190929190505050151561234f57600080fd5b5050505600a165627a7a7230582039faf9537aa0e2b0d401dfe5f265e69924a1bf217c0d3036be23056d1fe0a1500029",
  "source": "pragma solidity 0.4.24;\n\nimport \"openzeppelin-solidity/contracts/token/ERC20/StandardToken.sol\";\nimport \"contracts/BundleToken1.sol\";\nimport \"contracts/BundleToken2.sol\";\n\ncontract BundleTokens {\n\nuint constant maxowners=100;\nuint constant maxbundles=100;\nuint constant maxsubscribers=1000;\n\n//Emergency stop\nbool isStopped = false;\n\naddress token1addr;\naddress token2addr;\n\naddress tokencontractaddr;\n\nuint signed;\n\nuint bundleCount;\nuint userId;\n\n// Number of bundles\nuint countBundles;\n\n// Number of bundle owners\nuint countOwners;\n\n// Number of subscribers\nuint countSubscribers;\n\n//webapp administrator\naddress admin;\n\n// Bundle state\nenum bundleState {Active, Close, MissingFunds}\n\n// BundleOwnerState\nenum ownerState {Registered, Unregistered}\n\n// BundleSubscribersState\nenum subscriberState {Registered, Unregistered,Claimed, Paid}\n\n// Subcribers only can subscribe to one bundle at a time \nstruct Subscribers {\n    uint balance1;\n    uint balance2;\n    uint time;\n    uint bundleId;\n    uint bonus1;\n    uint bonus2;\n    subscriberState state;\n    address owner;\n}\n\nstruct Owners {\n    uint bundleId;\n    ownerState state;\n    address owner;\n}\n\n// bundle\nstruct Bundle {\n        uint time;\n        uint bonus;\n        uint balance1;\n        uint balance2;\n        address token1;\n        address token2;\n        uint count;\n        address owner;\n}\n\n// bundles\nBundle[maxowners] bundles;\n\n// bundle owners\nOwners[maxowners] owners;\n\n// bundle subscribers\nSubscribers[maxsubscribers] subscribers;\n\nconstructor() public {\n       countOwners=0;\n       countSubscribers=0;\n       countBundles=0; \n       admin=msg.sender;\n}\n\n// Modifiers\n\nmodifier verifyAdmin {\n    require (msg.sender == admin);\n     _;\n     }\n\nmodifier stoppedInEmergency {\n        require(!isStopped);\n        _;\n    }\n\nfunction setAddr(address addr)\n  public\n  {\n          tokencontractaddr=addr;\n  }\n\nfunction stopContract()\n    public\n    verifyAdmin  {\n        isStopped = true;\n    }\n\nfunction resumeContract()\n    public\n    verifyAdmin {\n        isStopped = false;\n    }\n\nfunction getUser()\n    public\n    view\n    returns(uint user)\n{\n    return userId;\n}\n\nfunction getSigned(uint u)\n    public\n    returns(uint)\n{\n  signed=u;\n  return signed;\n}\n\n// Check User\nfunction checkUser(uint x)\n    public\n    returns (uint) // 0: admin, 1:owner 2:subscriber\n{\n  userId=x;\n  if (msg.sender == admin){\n     userId=0;\n  }else{\n            if (checkOwner()){\n                userId=1;\n            }else{\n                userId=2;\n            }\n  }\n  return userId;\n}\n\n// Register a bundler owner\nfunction registerOwner(address _owner) \n    public\n    verifyAdmin\n    stoppedInEmergency\n{\n  require(countOwners >= 0 && countOwners < maxowners);\n  owners[countOwners].state=ownerState.Registered;\n  owners[countOwners].owner=_owner;\n  countOwners=countOwners+1;\n}\n\n// Verify Owner\nfunction checkOwner()\n    view\n    public\n    returns (bool success)\n{\n  success=false;\n  for (uint i = 0; i < countOwners; i++) {\n        if (owners[i].owner==msg.sender){\n           if (owners[i].state == ownerState.Registered ){\n                success=true;\n           }\n        }\n  }\n  return success;\n}\n\nfunction getName1(uint _bundleId)\n    public\n    view\n    returns(uint name)\n{\n    require ( _bundleId >= 0 && _bundleId < maxbundles);\n   // address addr=bundles[_bundleId].token1;\n   // BundleToken1 tokencontract = BundleToken1(addr);\n   // name=tokencontract.getName();\n    //name=bytes32(0x4554480000000000000000000000000000000000000000000000000000000000);\n    name=5;\n    return(name);\n}\n\nfunction getName2(uint _bundleId)\n    public\n    view\n    returns(string name)\n{\n    require ( _bundleId >= 0 && _bundleId < maxbundles);\n    address addr=bundles[_bundleId].token2;\n    BundleToken2 tokencontract = BundleToken2(addr);\n    name=tokencontract.getName();\n    return(name);\n}\n\n\n// check sender bundle\nfunction checksender()\n    view\n    public\n    returns (address)\n{\n    return(msg.sender);\n}\n\n\n// Register bundle\nfunction registerBundle(uint _mintime, uint _bonus, uint _balance1, uint _balance2, address _token1, address _token2)\n    stoppedInEmergency\n    public\n{\n    require(bundleCount >= 0 && bundleCount < maxbundles);\n    bundles[bundleCount].time=_mintime;\n    bundles[bundleCount].bonus=_bonus;\n    bundles[bundleCount].balance1=_balance1;\n    bundles[bundleCount].balance2=_balance2;\n    bundles[bundleCount].token1=_token1;\n    bundles[bundleCount].token2=_token2;\n    bundles[bundleCount].count=0;\n    bundles[bundleCount].owner=msg.sender;\n    bundleCount=bundleCount+1;\n}\n\n\nfunction getBundleBonus(uint _bundleId)\n    view\n    public\n    returns (uint b)\n{\n    require ( _bundleId >= 0 && _bundleId < maxbundles);\n    b=bundles[_bundleId].bonus;\n    return b;\n}\n\nfunction getBundleTime(uint _bundleId)\n    view\n    public\n    returns (uint b)\n{\n    require ( _bundleId >= 0 && _bundleId < maxbundles);\n    b=bundles[_bundleId].time;\n    return b;\n}\n\nfunction getBundleBalance1(uint _bundleId)\n    view\n    public\n    returns (uint b)\n{\n    require ( _bundleId >= 0 && _bundleId < maxbundles);\n    b=bundles[_bundleId].balance1;\n    return b;\n}\n\nfunction getBundleBalance2(uint _bundleId)\n    view\n    public\n    returns (uint b)\n{\n    require ( _bundleId >= 0 && _bundleId < maxbundles);\n    b=bundles[_bundleId].balance2;\n    return b;\n}\n\n// check bundle owner\nfunction checkBundleOwner(uint _bundleId)\n    view\n    public\n    returns (address b)\n{\n    require ( _bundleId >= 0 && _bundleId < maxbundles);\n    b=bundles[_bundleId].owner;\n    return(b);\n}\n\n// Get number of bundles\n  function getBundleCount()\n    public\n    view\n    returns(uint)\n{\n    return(bundleCount);\n}\n\n// check balance of tokens\nfunction getBalance(address _token)\n    public\n    view\n    returns(uint balance)\n{\n    StandardToken tokencontract = StandardToken(_token);\n    balance=tokencontract.balanceOf(msg.sender); // untrusted external call\n    return (balance);\n}\n\n// check balance of tokens\nfunction getBalanceContract(address _token)\n    public\n    view\n    returns(uint balance)\n{\n    StandardToken tokencontract = StandardToken(_token);\n    balance=tokencontract.balanceOf(address(this)); // untrusted external call\n    return (balance);\n}\n\n\nfunction depositToken1(uint _amount,uint _bundleid)\n    public\n    payable\n{\n\n    BundleToken1 tokencontract = BundleToken1(bundles[_bundleid].token1);\n    require(tokencontract.transferFrom(msg.sender,address(this),_amount));\n}\n\nfunction depositToken2(uint _amount,uint _bundleid)\n    public\n    payable\n{\n\n    BundleToken2 tokencontract = BundleToken2(bundles[_bundleid].token2);\n    require(tokencontract.transferFrom(msg.sender,address(this),_amount));\n}\n\n// register subscriber to bundle\nfunction registerSubscriber(uint _bundleid)\n    stoppedInEmergency\n    public\n{\n    require ( _bundleid >= 0 && _bundleid < maxbundles);\n    require ( countSubscribers >= 0 && countSubscribers < maxsubscribers);\n\n    StandardToken token1 = StandardToken(bundles[_bundleid].token1);\n    StandardToken token2 = StandardToken(bundles[_bundleid].token2);\n    uint balance1=token1.balanceOf(msg.sender); // untrusted external call\n    uint balance2=token2.balanceOf(msg.sender); // untrusted external call\n\n   if (balance1>=bundles[_bundleid].balance1)\n     {\n     if (balance2>=bundles[_bundleid].balance2){\n        subscribers[countSubscribers].balance1= balance1;\n        subscribers[countSubscribers].balance2= balance2;\n        subscribers[countSubscribers].bundleId= _bundleid;\n        subscribers[countSubscribers].time= now;\n        subscribers[countSubscribers].bonus1= 0;\n        subscribers[countSubscribers].bonus2= 0;\n        subscribers[countSubscribers].state= subscriberState.Registered;\n        subscribers[countSubscribers].owner= msg.sender;\n        countSubscribers++;\n        bundles[_bundleid].count++;\n     }\n   }\n}\n\n// Get number of subscribers\nfunction getSubscriberCount(uint _bundleId)\n    public\n    view\n    returns(uint)\n{\n    require ( _bundleId >= 0 && _bundleId < maxbundles);\n    return(bundles[_bundleId].count);\n}\n\n// Unregister Subscriber to bundle\nfunction unregisterSubscriber(uint _bundleId)\n    stoppedInEmergency\n    public\n{\n    require ( _bundleId >= 0 && _bundleId < maxbundles);\n    for (uint i = 0; i < countSubscribers; i++) {\n        if (subscribers[i].owner==msg.sender){\n            if (subscribers[i].bundleId==_bundleId){\n                bundles[_bundleId].count--;\n                subscribers[i].state=subscriberState.Unregistered;\n            }\n        }\n    }\n}\n\n// Get time from first subscribed\n  function getSubscriberTime()\n    public\n    view\n    returns(uint diff)\n{\n    diff=0;\n    for (uint i = 0; i < countSubscribers; i++) {\n            if (subscribers[i].owner==msg.sender){\n                diff = (now - subscribers[i].time); // seconds https://www.unixtimestamp.com/index.php\n            }\n    }\n    return(diff);\n}\n\n// Subscriber Bundle Claim\nfunction subscriberClaim(uint _bundleId)\n    stoppedInEmergency\n    public\n    //verifySubscriber (msg.sender,_bundleId)\n{\n    require ( _bundleId >= 0 && _bundleId <= maxbundles);\n    StandardToken token1 = StandardToken(bundles[_bundleId].token1);\n    StandardToken token2 = StandardToken(bundles[_bundleId].token2);\n    uint balance1=token1.balanceOf(msg.sender); // untrusted external call\n    uint balance2=token2.balanceOf(msg.sender); // untrusted external call\n    for (uint i = 0; i < countSubscribers; i++) {\n                if (subscribers[i].owner==msg.sender){\n                    uint diff = (now - subscribers[i].time) ; // time in seconds\n                    uint bonus=bundles[_bundleId].bonus;\n                    if (diff >= bundles[_bundleId].time){\n                        if (balance1>=bundles[_bundleId].balance1)\n                        {\n                            if (balance2>=bundles[_bundleId].balance2){\n                                require(token1.transfer(msg.sender,bonus));\n                                require(token2.transfer(msg.sender,bonus));\n                                subscribers[i].state=subscriberState.Claimed;\n                                subscribers[i].bonus1=bundles[_bundleId].bonus;\n                                subscribers[i].bonus2=bundles[_bundleId].bonus;\n                           }\n                        }\n                    }\n                }\n    }\n}\n\n// Verify Subscriber Claim\nfunction checkSubscriberClaim()\n    external\n    view\n    returns (bool success)\n{\n for (uint i = 0; i < countSubscribers; i++) {\n    if (subscribers[i].owner==msg.sender){\n        if (subscribers[i].state == subscriberState.Claimed ){\n            return true;\n        }else{\n            return false;\n        }\n    }\n }\n}\n\n}\n\n",
  "sourcePath": "/Users/jcsancho/Dropbox/smartcontracts/bundletokens/bundletokens/contracts/BundleTokens.sol",
  "compiler": {
    "name": "solc",
    "version": "0.4.24+commit.e67f0147.Emscripten.clang"
  },
  "schemaVersion": "2.0.0",
  "updatedAt": "2018-09-06T19:00:25.914Z"
}