{
  "contractName": "BundleTokens",
  "abi": [
    {
      "inputs": [],
      "payable": false,
      "stateMutability": "nonpayable",
      "type": "constructor"
    },
    {
      "constant": false,
      "inputs": [],
      "name": "stopContract",
      "outputs": [],
      "payable": false,
      "stateMutability": "nonpayable",
      "type": "function"
    },
    {
      "constant": false,
      "inputs": [],
      "name": "resumeContract",
      "outputs": [],
      "payable": false,
      "stateMutability": "nonpayable",
      "type": "function"
    },
    {
      "constant": true,
      "inputs": [],
      "name": "getUser",
      "outputs": [
        {
          "name": "user",
          "type": "uint256"
        }
      ],
      "payable": false,
      "stateMutability": "view",
      "type": "function"
    },
    {
      "constant": false,
      "inputs": [
        {
          "name": "x",
          "type": "uint256"
        }
      ],
      "name": "checkUser",
      "outputs": [
        {
          "name": "",
          "type": "uint256"
        }
      ],
      "payable": false,
      "stateMutability": "nonpayable",
      "type": "function"
    },
    {
      "constant": false,
      "inputs": [
        {
          "name": "_owner",
          "type": "address"
        }
      ],
      "name": "registerOwner",
      "outputs": [],
      "payable": false,
      "stateMutability": "nonpayable",
      "type": "function"
    },
    {
      "constant": true,
      "inputs": [],
      "name": "checkOwner",
      "outputs": [
        {
          "name": "success",
          "type": "bool"
        }
      ],
      "payable": false,
      "stateMutability": "view",
      "type": "function"
    },
    {
      "constant": true,
      "inputs": [],
      "name": "checksender",
      "outputs": [
        {
          "name": "",
          "type": "address"
        }
      ],
      "payable": false,
      "stateMutability": "view",
      "type": "function"
    },
    {
      "constant": false,
      "inputs": [
        {
          "name": "_mintime",
          "type": "uint256"
        },
        {
          "name": "_bonus",
          "type": "uint256"
        },
        {
          "name": "_balance1",
          "type": "uint256"
        },
        {
          "name": "_balance2",
          "type": "uint256"
        },
        {
          "name": "_token1",
          "type": "address"
        },
        {
          "name": "_token2",
          "type": "address"
        }
      ],
      "name": "registerBundle",
      "outputs": [],
      "payable": false,
      "stateMutability": "nonpayable",
      "type": "function"
    },
    {
      "constant": true,
      "inputs": [
        {
          "name": "_bundleId",
          "type": "uint256"
        }
      ],
      "name": "getBundleBonus",
      "outputs": [
        {
          "name": "b",
          "type": "uint256"
        }
      ],
      "payable": false,
      "stateMutability": "view",
      "type": "function"
    },
    {
      "constant": true,
      "inputs": [
        {
          "name": "_bundleId",
          "type": "uint256"
        }
      ],
      "name": "getBundleTime",
      "outputs": [
        {
          "name": "b",
          "type": "uint256"
        }
      ],
      "payable": false,
      "stateMutability": "view",
      "type": "function"
    },
    {
      "constant": true,
      "inputs": [
        {
          "name": "_bundleId",
          "type": "uint256"
        }
      ],
      "name": "getBundleBalance1",
      "outputs": [
        {
          "name": "b",
          "type": "uint256"
        }
      ],
      "payable": false,
      "stateMutability": "view",
      "type": "function"
    },
    {
      "constant": true,
      "inputs": [
        {
          "name": "_bundleId",
          "type": "uint256"
        }
      ],
      "name": "getBundleBalance2",
      "outputs": [
        {
          "name": "b",
          "type": "uint256"
        }
      ],
      "payable": false,
      "stateMutability": "view",
      "type": "function"
    },
    {
      "constant": true,
      "inputs": [
        {
          "name": "_bundleId",
          "type": "uint256"
        }
      ],
      "name": "checkBundleOwner",
      "outputs": [
        {
          "name": "b",
          "type": "address"
        }
      ],
      "payable": false,
      "stateMutability": "view",
      "type": "function"
    },
    {
      "constant": true,
      "inputs": [],
      "name": "getBundleCount",
      "outputs": [
        {
          "name": "",
          "type": "uint256"
        }
      ],
      "payable": false,
      "stateMutability": "view",
      "type": "function"
    },
    {
      "constant": true,
      "inputs": [
        {
          "name": "_bundleid",
          "type": "uint256"
        }
      ],
      "name": "checkBalance",
      "outputs": [
        {
          "name": "balance1",
          "type": "uint256"
        }
      ],
      "payable": false,
      "stateMutability": "view",
      "type": "function"
    },
    {
      "constant": false,
      "inputs": [
        {
          "name": "_bundleid",
          "type": "uint256"
        }
      ],
      "name": "registerSubscriber",
      "outputs": [],
      "payable": false,
      "stateMutability": "nonpayable",
      "type": "function"
    },
    {
      "constant": true,
      "inputs": [
        {
          "name": "_bundleId",
          "type": "uint256"
        }
      ],
      "name": "getSubscriberCount",
      "outputs": [
        {
          "name": "",
          "type": "uint256"
        }
      ],
      "payable": false,
      "stateMutability": "view",
      "type": "function"
    },
    {
      "constant": false,
      "inputs": [
        {
          "name": "_bundleId",
          "type": "uint256"
        }
      ],
      "name": "unregisterSubscriber",
      "outputs": [],
      "payable": false,
      "stateMutability": "nonpayable",
      "type": "function"
    },
    {
      "constant": true,
      "inputs": [],
      "name": "getSubscriberTime",
      "outputs": [
        {
          "name": "diff",
          "type": "uint256"
        }
      ],
      "payable": false,
      "stateMutability": "view",
      "type": "function"
    },
    {
      "constant": false,
      "inputs": [
        {
          "name": "_bundleId",
          "type": "uint256"
        }
      ],
      "name": "subscriberClaim",
      "outputs": [],
      "payable": false,
      "stateMutability": "nonpayable",
      "type": "function"
    },
    {
      "constant": true,
      "inputs": [],
      "name": "checkSubscriberClaim",
      "outputs": [
        {
          "name": "success",
          "type": "bool"
        }
      ],
      "payable": false,
      "stateMutability": "view",
      "type": "function"
    }
  ],
  "bytecode": "0x608060405260008060006101000a81548160ff02191690831515021790555034801561002a57600080fd5b5060006005819055506000600681905550600060048190555033600760006101000a81548173ffffffffffffffffffffffffffffffffffffffff021916908373ffffffffffffffffffffffffffffffffffffffff1602179055506119ec806100936000396000f30060806040526004361061011d576000357c0100000000000000000000000000000000000000000000000000000000900463ffffffff1680631220c6ed1461012257806312253a6c1461016557806318a365011461017c5780632143625c146101a957806323b4cede146101d45780632ff350571461022b57806334e6b29c1461025a5780635a26a61b1461029b57806367963cde146102dc578063723331bb146103075780637f28628614610348578063832880e714610389578063960be54a146103b45780639b4b409c1461043f5780639b537d1f1461046c578063a3773288146104ad578063c4bc5da5146104da578063cdbce03d146104f1578063dc75a6bd14610520578063f14474cf14610561578063f5ae35c6146105a2575b600080fd5b34801561012e57600080fd5b50610163600480360381019080803573ffffffffffffffffffffffffffffffffffffffff16906020019092919050505061060f565b005b34801561017157600080fd5b5061017a610748565b005b34801561018857600080fd5b506101a7600480360381019080803590602001909291905050506107c0565b005b3480156101b557600080fd5b506101be610bd2565b6040518082815260200191505060405180910390f35b3480156101e057600080fd5b506101e9610bdc565b604051808273ffffffffffffffffffffffffffffffffffffffff1673ffffffffffffffffffffffffffffffffffffffff16815260200191505060405180910390f35b34801561023757600080fd5b50610240610be4565b604051808215151515815260200191505060405180910390f35b34801561026657600080fd5b5061028560048036038101908080359060200190929190505050610cca565b6040518082815260200191505060405180910390f35b3480156102a757600080fd5b506102c660048036038101908080359060200190929190505050610d08565b6040518082815260200191505060405180910390f35b3480156102e857600080fd5b506102f1610d46565b6040518082815260200191505060405180910390f35b34801561031357600080fd5b5061033260048036038101908080359060200190929190505050610dfa565b6040518082815260200191505060405180910390f35b34801561035457600080fd5b5061037360048036038101908080359060200190929190505050610e94565b6040518082815260200191505060405180910390f35b34801561039557600080fd5b5061039e610fcd565b6040518082815260200191505060405180910390f35b3480156103c057600080fd5b5061043d60048036038101908080359060200190929190803590602001909291908035906020019092919080359060200190929190803573ffffffffffffffffffffffffffffffffffffffff169060200190929190803573ffffffffffffffffffffffffffffffffffffffff169060200190929190505050610fd7565b005b34801561044b57600080fd5b5061046a600480360381019080803590602001909291905050506111bd565b005b34801561047857600080fd5b506104976004803603810190808035906020019092919050505061160d565b6040518082815260200191505060405180910390f35b3480156104b957600080fd5b506104d860048036038101908080359060200190929190505050611648565b005b3480156104e657600080fd5b506104ef611790565b005b3480156104fd57600080fd5b50610506611808565b604051808215151515815260200191505060405180910390f35b34801561052c57600080fd5b5061054b600480360381019080803590602001909291905050506118e6565b6040518082815260200191505060405180910390f35b34801561056d57600080fd5b5061058c60048036038101908080359060200190929190505050611924565b6040518082815260200191505060405180910390f35b3480156105ae57600080fd5b506105cd60048036038101908080359060200190929190505050611962565b604051808273ffffffffffffffffffffffffffffffffffffffff1673ffffffffffffffffffffffffffffffffffffffff16815260200191505060405180910390f35b600760009054906101000a900473ffffffffffffffffffffffffffffffffffffffff1673ffffffffffffffffffffffffffffffffffffffff163373ffffffffffffffffffffffffffffffffffffffff1614151561066b57600080fd5b6000809054906101000a900460ff1615151561068657600080fd5b60006005541015801561069b57506064600554105b15156106a657600080fd5b60006103286005546064811015156106ba57fe5b6002020160010160006101000a81548160ff021916908360018111156106dc57fe5b0217905550806103286005546064811015156106f457fe5b6002020160010160016101000a81548173ffffffffffffffffffffffffffffffffffffffff021916908373ffffffffffffffffffffffffffffffffffffffff16021790555060016005540160058190555050565b600760009054906101000a900473ffffffffffffffffffffffffffffffffffffffff1673ffffffffffffffffffffffffffffffffffffffff163373ffffffffffffffffffffffffffffffffffffffff161415156107a457600080fd5b60016000806101000a81548160ff021916908315150217905550565b6000806000806000806000809054906101000a900460ff161515156107e457600080fd5b600087101580156107f6575060648711155b151561080157600080fd5b60088760648110151561081057fe5b6008020160040160009054906101000a900473ffffffffffffffffffffffffffffffffffffffff16955060088760648110151561084957fe5b6008020160050160009054906101000a900473ffffffffffffffffffffffffffffffffffffffff1694508573ffffffffffffffffffffffffffffffffffffffff166370a08231336040518263ffffffff167c0100000000000000000000000000000000000000000000000000000000028152600401808273ffffffffffffffffffffffffffffffffffffffff1673ffffffffffffffffffffffffffffffffffffffff168152602001915050602060405180830381600087803b15801561090e57600080fd5b505af1158015610922573d6000803e3d6000fd5b505050506040513d602081101561093857600080fd5b810190808051906020019092919050505093508473ffffffffffffffffffffffffffffffffffffffff166370a08231336040518263ffffffff167c0100000000000000000000000000000000000000000000000000000000028152600401808273ffffffffffffffffffffffffffffffffffffffff1673ffffffffffffffffffffffffffffffffffffffff168152602001915050602060405180830381600087803b1580156109e657600080fd5b505af11580156109fa573d6000803e3d6000fd5b505050506040513d6020811015610a1057600080fd5b81019080805190602001909291905050509250600091505b600654821015610bc9573373ffffffffffffffffffffffffffffffffffffffff166103f0836103e881101515610a5a57fe5b6007020160060160019054906101000a900473ffffffffffffffffffffffffffffffffffffffff1673ffffffffffffffffffffffffffffffffffffffff161415610bbc576103f0826103e881101515610aaf57fe5b600702016002015442039050600887606481101515610aca57fe5b600802016000015481101515610bbb57600887606481101515610ae957fe5b600802016002015484101515610bba57600887606481101515610b0857fe5b600802016003015483101515610bb95760026103f0836103e881101515610b2b57fe5b6007020160060160006101000a81548160ff02191690836003811115610b4d57fe5b0217905550600887606481101515610b6157fe5b60080201600101546103f0836103e881101515610b7a57fe5b6007020160040181905550600887606481101515610b9457fe5b60080201600101546103f0836103e881101515610bad57fe5b60070201600501819055505b5b5b5b8180600101925050610a28565b50505050505050565b6000600254905090565b600033905090565b600080600090505b600654811015610cc5573373ffffffffffffffffffffffffffffffffffffffff166103f0826103e881101515610c1e57fe5b6007020160060160019054906101000a900473ffffffffffffffffffffffffffffffffffffffff1673ffffffffffffffffffffffffffffffffffffffff161415610cb85760026003811115610c6f57fe5b6103f0826103e881101515610c8057fe5b6007020160060160009054906101000a900460ff166003811115610ca057fe5b1415610caf5760019150610cc6565b60009150610cc6565b8080600101915050610bec565b5b5090565b6000808210158015610cdc5750606482105b1515610ce757600080fd5b600882606481101515610cf657fe5b60080201600101549050809050919050565b6000808210158015610d1a5750606482105b1515610d2557600080fd5b600882606481101515610d3457fe5b60080201600001549050809050919050565b60008060009150600090505b600654811015610df3573373ffffffffffffffffffffffffffffffffffffffff166103f0826103e881101515610d8457fe5b6007020160060160019054906101000a900473ffffffffffffffffffffffffffffffffffffffff1673ffffffffffffffffffffffffffffffffffffffff161415610de6576103f0816103e881101515610dd957fe5b6007020160020154420391505b8080600101915050610d52565b8191505090565b600081600381905550600760009054906101000a900473ffffffffffffffffffffffffffffffffffffffff1673ffffffffffffffffffffffffffffffffffffffff163373ffffffffffffffffffffffffffffffffffffffff161415610e66576000600381905550610e8a565b610e6e611808565b15610e80576001600381905550610e89565b60026003819055505b5b6003549050919050565b60008060008310158015610ea85750606483105b1515610eb357600080fd5b600883606481101515610ec257fe5b6008020160040160009054906101000a900473ffffffffffffffffffffffffffffffffffffffff1690508073ffffffffffffffffffffffffffffffffffffffff166370a08231336040518263ffffffff167c0100000000000000000000000000000000000000000000000000000000028152600401808273ffffffffffffffffffffffffffffffffffffffff1673ffffffffffffffffffffffffffffffffffffffff168152602001915050602060405180830381600087803b158015610f8757600080fd5b505af1158015610f9b573d6000803e3d6000fd5b505050506040513d6020811015610fb157600080fd5b8101908080519060200190929190505050915081915050919050565b6000600354905090565b6000809054906101000a900460ff16151515610ff257600080fd5b60006002541015801561100757506064600254105b151561101257600080fd5b85600860025460648110151561102457fe5b600802016000018190555084600860025460648110151561104157fe5b600802016001018190555083600860025460648110151561105e57fe5b600802016002018190555082600860025460648110151561107b57fe5b600802016003018190555081600860025460648110151561109857fe5b6008020160040160006101000a81548173ffffffffffffffffffffffffffffffffffffffff021916908373ffffffffffffffffffffffffffffffffffffffff1602179055508060086002546064811015156110ef57fe5b6008020160050160006101000a81548173ffffffffffffffffffffffffffffffffffffffff021916908373ffffffffffffffffffffffffffffffffffffffff1602179055506000600860025460648110151561114757fe5b600802016006018190555033600860025460648110151561116457fe5b6008020160070160006101000a81548173ffffffffffffffffffffffffffffffffffffffff021916908373ffffffffffffffffffffffffffffffffffffffff160217905550600160025401600281905550505050505050565b6000806000806000809054906101000a900460ff161515156111de57600080fd5b600085101580156111ef5750606485105b15156111fa57600080fd5b60006006541015801561121057506103e8600654105b151561121b57600080fd5b60088560648110151561122a57fe5b6008020160040160009054906101000a900473ffffffffffffffffffffffffffffffffffffffff16935060088560648110151561126357fe5b6008020160050160009054906101000a900473ffffffffffffffffffffffffffffffffffffffff1692508373ffffffffffffffffffffffffffffffffffffffff166370a08231336040518263ffffffff167c0100000000000000000000000000000000000000000000000000000000028152600401808273ffffffffffffffffffffffffffffffffffffffff1673ffffffffffffffffffffffffffffffffffffffff168152602001915050602060405180830381600087803b15801561132857600080fd5b505af115801561133c573d6000803e3d6000fd5b505050506040513d602081101561135257600080fd5b810190808051906020019092919050505091508273ffffffffffffffffffffffffffffffffffffffff166370a08231336040518263ffffffff167c0100000000000000000000000000000000000000000000000000000000028152600401808273ffffffffffffffffffffffffffffffffffffffff1673ffffffffffffffffffffffffffffffffffffffff168152602001915050602060405180830381600087803b15801561140057600080fd5b505af1158015611414573d6000803e3d6000fd5b505050506040513d602081101561142a57600080fd5b8101908080519060200190929190505050905060088560648110151561144c57fe5b6008020160020154821015156116065760088560648110151561146b57fe5b60080201600301548110151561160557816103f06006546103e88110151561148f57fe5b6007020160000181905550806103f06006546103e8811015156114ae57fe5b6007020160010181905550846103f06006546103e8811015156114cd57fe5b6007020160030181905550426103f06006546103e8811015156114ec57fe5b600702016002018190555060006103f06006546103e88110151561150c57fe5b600702016004018190555060006103f06006546103e88110151561152c57fe5b600702016005018190555060006103f06006546103e88110151561154c57fe5b6007020160060160006101000a81548160ff0219169083600381111561156e57fe5b0217905550336103f06006546103e88110151561158757fe5b6007020160060160016101000a81548173ffffffffffffffffffffffffffffffffffffffff021916908373ffffffffffffffffffffffffffffffffffffffff1602179055506006600081548092919060010191905055506008856064811015156115ed57fe5b60080201600601600081548092919060010191905055505b5b5050505050565b600080821015801561161f5750606482105b151561162a57600080fd5b60088260648110151561163957fe5b60080201600601549050919050565b60008060009054906101000a900460ff1615151561166557600080fd5b600082101580156116765750606482105b151561168157600080fd5b600090505b60065481101561178c573373ffffffffffffffffffffffffffffffffffffffff166103f0826103e8811015156116b857fe5b6007020160060160019054906101000a900473ffffffffffffffffffffffffffffffffffffffff1673ffffffffffffffffffffffffffffffffffffffff16141561177f57816103f0826103e88110151561170e57fe5b6007020160030154141561177e5760088260648110151561172b57fe5b60080201600601600081548092919060019003919050555060016103f0826103e88110151561175657fe5b6007020160060160006101000a81548160ff0219169083600381111561177857fe5b02179055505b5b8080600101915050611686565b5050565b600760009054906101000a900473ffffffffffffffffffffffffffffffffffffffff1673ffffffffffffffffffffffffffffffffffffffff163373ffffffffffffffffffffffffffffffffffffffff161415156117ec57600080fd5b60008060006101000a81548160ff021916908315150217905550565b60008060009150600090505b6005548110156118df573373ffffffffffffffffffffffffffffffffffffffff166103288260648110151561184557fe5b6002020160010160019054906101000a900473ffffffffffffffffffffffffffffffffffffffff1673ffffffffffffffffffffffffffffffffffffffff1614156118d2576000600181111561189657fe5b610328826064811015156118a657fe5b6002020160010160009054906101000a900460ff1660018111156118c657fe5b14156118d157600191505b5b8080600101915050611814565b8191505090565b60008082101580156118f85750606482105b151561190357600080fd5b60088260648110151561191257fe5b60080201600201549050809050919050565b60008082101580156119365750606482105b151561194157600080fd5b60088260648110151561195057fe5b60080201600301549050809050919050565b60008082101580156119745750606482105b151561197f57600080fd5b60088260648110151561198e57fe5b6008020160070160009054906101000a900473ffffffffffffffffffffffffffffffffffffffff1690508090509190505600a165627a7a723058208b5a564c907cfa9dd32e2cd8d87ec01f713bf6e03105e27e1a62dce6a60cb39f0029",
  "source": "pragma solidity 0.4.24;\n\nimport \"openzeppelin-solidity/contracts/token/ERC20/StandardToken.sol\";\n\ncontract BundleTokens {\n\nuint constant maxowners=100;\nuint constant maxbundles=100;\nuint constant maxsubscribers=1000;\n\n//Emergency stop\nbool isStopped = false;\n\naddress token1addr;\naddress token2addr;\n\nuint bundleCount;\nuint userId;\n\n// Number of bundles\nuint countBundles;\n\n// Number of bundle owners\nuint countOwners;\n\n// Number of subscribers\nuint countSubscribers;\n\n//webapp administrator\naddress private admin;\n\n// Bundle state\nenum bundleState {Active, Close, MissingFunds}\n\n// BundleOwnerState\nenum ownerState {Registered, Unregistered}\n\n// BundleSubscribersState\nenum subscriberState {Registered, Unregistered,Claimed, Paid}\n\n// Subcribers only can subscribe to one bundle at a time \nstruct Subscribers {\n    uint balance1;\n    uint balance2;\n    uint time;\n    uint bundleId;\n    uint bonus1;\n    uint bonus2;\n    subscriberState state;\n    address owner;\n}\n\nstruct Owners {\n    uint bundleId;\n    ownerState state;\n    address owner;\n}\n\n// bundle\nstruct Bundle {\n        uint time;\n        uint bonus;\n        uint balance1;\n        uint balance2;\n        address token1;\n        address token2;\n        uint count;\n        address owner;\n}\n\n// bundles\nBundle[maxowners] bundles;\n\n// bundle owners\nOwners[maxowners] owners;\n\n// bundle subscribers\nSubscribers[maxsubscribers] subscribers;\n\nconstructor() public {\n       countOwners=0;\n       countSubscribers=0;\n       countBundles=0; \n       admin=msg.sender;\n}\n\n// Modifiers\n\nmodifier verifyAdmin {\n    require (msg.sender == admin);\n     _;\n     }\n\nmodifier stoppedInEmergency {\n        require(!isStopped);\n        _;\n    }\n\nfunction stopContract()\n    public\n    verifyAdmin  {\n        isStopped = true;\n    }\n\nfunction resumeContract()\n    public\n    verifyAdmin {\n        isStopped = false;\n    }\n\n\nfunction getUser()\n    public\n    view\n    returns(uint user)\n{\n    return userId;\n}\n\n// Check User\nfunction checkUser(uint x)\n    public\n    returns (uint) // 0: admin, 1:owner 2:subscriber\n{\n  userId=x;\n  if (msg.sender == admin){\n     userId=0;\n  }else{\n            if (checkOwner()){\n                userId=1;\n            }else{\n                userId=2;\n            }\n  }\n  return userId;\n}\n\n\n// Register a bundler owner\nfunction registerOwner(address _owner) \n    public\n    verifyAdmin\n    stoppedInEmergency\n{\n  require(countOwners >= 0 && countOwners < maxowners);\n  owners[countOwners].state=ownerState.Registered;\n  owners[countOwners].owner=_owner;\n  countOwners=countOwners+1;\n}\n\n\n// Verify Owner\n\nfunction checkOwner()\n    view\n    public\n    returns (bool success)\n{\n  success=false;\n  for (uint i = 0; i < countOwners; i++) {\n        if (owners[i].owner==msg.sender){\n           if (owners[i].state == ownerState.Registered ){\n                success=true;\n           }\n        }\n  }\n  return success;\n}\n\n// check sender bundle\nfunction checksender()\n    view\n    public\n    returns (address)\n{\n    return(msg.sender);\n}\n\n\n// Register bundle\nfunction registerBundle(uint _mintime, uint _bonus, uint _balance1, uint _balance2, address _token1, address _token2)\n    stoppedInEmergency\n    public\n\n{\n    require(bundleCount >= 0 && bundleCount < maxbundles);\n    bundles[bundleCount].time=_mintime;\n    bundles[bundleCount].bonus=_bonus;\n    bundles[bundleCount].balance1=_balance1;\n    bundles[bundleCount].balance2=_balance2;\n    bundles[bundleCount].token1=_token1;\n    bundles[bundleCount].token2=_token2;\n    bundles[bundleCount].count=0;\n    bundles[bundleCount].owner=msg.sender;\n    bundleCount=bundleCount+1;\n}\n\nfunction getBundleBonus(uint _bundleId)\n    view\n    public\n    returns (uint b)\n{\n    require ( _bundleId >= 0 && _bundleId < maxbundles);\n    b=bundles[_bundleId].bonus;\n    return b;\n}\n\nfunction getBundleTime(uint _bundleId)\n    view\n    public\n    returns (uint b)\n{\n    require ( _bundleId >= 0 && _bundleId < maxbundles);\n    b=bundles[_bundleId].time;\n    return b;\n}\n\nfunction getBundleBalance1(uint _bundleId)\n    view\n    public\n    returns (uint b)\n{\n    require ( _bundleId >= 0 && _bundleId < maxbundles);\n    b=bundles[_bundleId].balance1;\n    return b;\n}\n\nfunction getBundleBalance2(uint _bundleId)\n    view\n    public\n    returns (uint b)\n{\n    require ( _bundleId >= 0 && _bundleId < maxbundles);\n    b=bundles[_bundleId].balance2;\n    return b;\n}\n\n// check bundle owner\nfunction checkBundleOwner(uint _bundleId)\n    view\n    public\n    returns (address b)\n{\n    require ( _bundleId >= 0 && _bundleId < maxbundles);\n    b=bundles[_bundleId].owner;\n    return(b);\n}\n\n\n// Get number of bundles\n  function getBundleCount()\n    public\n    view\n    returns(uint)\n{\n    return(bundleCount);\n}\n\n// check balance of tokens\nfunction checkBalance(uint _bundleid)\n    public\n    view\n    returns(uint balance1)\n{\n    require ( _bundleid >= 0 && _bundleid < maxbundles);\n    StandardToken token1 = StandardToken(bundles[_bundleid].token1);\n    balance1=token1.balanceOf(msg.sender); // untrusted external call\n    return (balance1);\n}\n\n\n// register subscriber to bundle\nfunction registerSubscriber(uint _bundleid)\n    stoppedInEmergency\n    public\n{\n    require ( _bundleid >= 0 && _bundleid < maxbundles);\n    require ( countSubscribers >= 0 && countSubscribers < maxsubscribers);\n\n    StandardToken token1 = StandardToken(bundles[_bundleid].token1);\n    StandardToken token2 = StandardToken(bundles[_bundleid].token2);\n    uint balance1=token1.balanceOf(msg.sender); // untrusted external call\n    uint balance2=token2.balanceOf(msg.sender); // untrusted external call\n\n   if (balance1>=bundles[_bundleid].balance1)\n     {\n     if (balance2>=bundles[_bundleid].balance2){\n        subscribers[countSubscribers].balance1= balance1;\n        subscribers[countSubscribers].balance2= balance2;\n        subscribers[countSubscribers].bundleId= _bundleid;\n        subscribers[countSubscribers].time= now;\n        subscribers[countSubscribers].bonus1= 0;\n        subscribers[countSubscribers].bonus2= 0;\n        subscribers[countSubscribers].state= subscriberState.Registered;\n        subscribers[countSubscribers].owner= msg.sender;\n        countSubscribers++;\n        bundles[_bundleid].count++;\n\n     }\n     }\n}\n\n\n// Get number of subscribers\nfunction getSubscriberCount(uint _bundleId)\n    public\n    view\n    returns(uint)\n{\n    require ( _bundleId >= 0 && _bundleId < maxbundles);\n    return(bundles[_bundleId].count);\n}\n\n\n// Unregister Subscriber to bundle\nfunction unregisterSubscriber(uint _bundleId)\n    stoppedInEmergency\n    public\n{\n    require ( _bundleId >= 0 && _bundleId < maxbundles);\n    for (uint i = 0; i < countSubscribers; i++) {\n        if (subscribers[i].owner==msg.sender){\n            if (subscribers[i].bundleId==_bundleId){\n                bundles[_bundleId].count--;\n                subscribers[i].state=subscriberState.Unregistered;\n            }\n        }\n    }\n}\n\n// Get time from fist subscribed\n  function getSubscriberTime()\n    public\n    view\n    returns(uint diff)\n{\n    diff=0;\n    for (uint i = 0; i < countSubscribers; i++) {\n            if (subscribers[i].owner==msg.sender){\n                diff = (now - subscribers[i].time); // seconds https://www.unixtimestamp.com/index.php\n            }\n    }\n    return(diff);\n}\n\n// Subscriber Bundle Claim\nfunction subscriberClaim(uint _bundleId)\n    stoppedInEmergency\n    public\n    //verifySubscriber (msg.sender,_bundleId)\n{\n    require ( _bundleId >= 0 && _bundleId <= maxbundles);\n    StandardToken token1 = StandardToken(bundles[_bundleId].token1);\n    StandardToken token2 = StandardToken(bundles[_bundleId].token2);\n    uint balance1=token1.balanceOf(msg.sender); // untrusted external call\n    uint balance2=token2.balanceOf(msg.sender); // untrusted external call\n\n    for (uint i = 0; i < countSubscribers; i++) {\n                if (subscribers[i].owner==msg.sender){\n                    uint diff = (now - subscribers[i].time) ; // time in seconds\n                    if (diff >= bundles[_bundleId].time){\n                        if (balance1>=bundles[_bundleId].balance1)\n                        {\n                            if (balance2>=bundles[_bundleId].balance2){\n                                subscribers[i].state=subscriberState.Claimed;\n                                subscribers[i].bonus1=bundles[_bundleId].bonus;\n                                subscribers[i].bonus2=bundles[_bundleId].bonus;\n                            }\n                        }\n                    }\n                }\n    }\n}\n\n// Verify Subscriber Claim\nfunction checkSubscriberClaim()\n    external\n    view\n    returns (bool success)\n{\n for (uint i = 0; i < countSubscribers; i++) {\n    if (subscribers[i].owner==msg.sender){\n        if (subscribers[i].state == subscriberState.Claimed ){\n            return true;\n        }else{\n            return false;\n        }\n    }\n }\n}\n\n}\n\n",
  "sourcePath": "/Users/jcsancho/Dropbox/smartcontracts/airdrops/bundletokens/contracts/BundleTokens.sol",
  "compiler": {
    "name": "solc",
    "version": "0.4.24+commit.e67f0147.Emscripten.clang"
  },
  "schemaVersion": "2.0.0",
  "updatedAt": "2018-08-27T22:29:18.955Z"
}