{
  "contractName": "BundleTokens",
  "abi": [
    {
      "inputs": [],
      "payable": false,
      "stateMutability": "nonpayable",
      "type": "constructor"
    },
    {
      "constant": false,
      "inputs": [
        {
          "name": "x",
          "type": "uint256"
        }
      ],
      "name": "setStorage",
      "outputs": [],
      "payable": false,
      "stateMutability": "nonpayable",
      "type": "function"
    },
    {
      "constant": true,
      "inputs": [],
      "name": "getStorage",
      "outputs": [
        {
          "name": "",
          "type": "uint256"
        }
      ],
      "payable": false,
      "stateMutability": "view",
      "type": "function"
    },
    {
      "constant": true,
      "inputs": [],
      "name": "getUser",
      "outputs": [
        {
          "name": "user",
          "type": "uint256"
        }
      ],
      "payable": false,
      "stateMutability": "view",
      "type": "function"
    },
    {
      "constant": false,
      "inputs": [
        {
          "name": "x",
          "type": "uint256"
        }
      ],
      "name": "checkUser",
      "outputs": [
        {
          "name": "",
          "type": "uint256"
        }
      ],
      "payable": false,
      "stateMutability": "nonpayable",
      "type": "function"
    },
    {
      "constant": true,
      "inputs": [],
      "name": "checkAdmin",
      "outputs": [
        {
          "name": "success",
          "type": "bool"
        }
      ],
      "payable": false,
      "stateMutability": "view",
      "type": "function"
    },
    {
      "constant": false,
      "inputs": [
        {
          "name": "_owner",
          "type": "address"
        }
      ],
      "name": "registerOwner",
      "outputs": [],
      "payable": false,
      "stateMutability": "nonpayable",
      "type": "function"
    },
    {
      "constant": true,
      "inputs": [],
      "name": "checkOwner",
      "outputs": [
        {
          "name": "success",
          "type": "bool"
        }
      ],
      "payable": false,
      "stateMutability": "view",
      "type": "function"
    },
    {
      "constant": true,
      "inputs": [],
      "name": "checksender",
      "outputs": [
        {
          "name": "",
          "type": "address"
        }
      ],
      "payable": false,
      "stateMutability": "view",
      "type": "function"
    },
    {
      "constant": false,
      "inputs": [
        {
          "name": "_symbol",
          "type": "address"
        }
      ],
      "name": "writestorage",
      "outputs": [],
      "payable": false,
      "stateMutability": "nonpayable",
      "type": "function"
    },
    {
      "constant": true,
      "inputs": [],
      "name": "checkstorage",
      "outputs": [
        {
          "name": "b",
          "type": "uint256"
        }
      ],
      "payable": false,
      "stateMutability": "view",
      "type": "function"
    },
    {
      "constant": false,
      "inputs": [
        {
          "name": "_mintime",
          "type": "uint256"
        },
        {
          "name": "_bonus",
          "type": "uint256"
        },
        {
          "name": "_balance1",
          "type": "uint256"
        },
        {
          "name": "_balance2",
          "type": "uint256"
        },
        {
          "name": "_token1",
          "type": "address"
        },
        {
          "name": "_token2",
          "type": "address"
        }
      ],
      "name": "registerBundle",
      "outputs": [],
      "payable": false,
      "stateMutability": "nonpayable",
      "type": "function"
    },
    {
      "constant": true,
      "inputs": [
        {
          "name": "_bundleId",
          "type": "uint256"
        }
      ],
      "name": "getBundleBonus",
      "outputs": [
        {
          "name": "b",
          "type": "uint256"
        }
      ],
      "payable": false,
      "stateMutability": "view",
      "type": "function"
    },
    {
      "constant": true,
      "inputs": [
        {
          "name": "_bundleId",
          "type": "uint256"
        }
      ],
      "name": "getBundleTime",
      "outputs": [
        {
          "name": "b",
          "type": "uint256"
        }
      ],
      "payable": false,
      "stateMutability": "view",
      "type": "function"
    },
    {
      "constant": true,
      "inputs": [
        {
          "name": "_bundleId",
          "type": "uint256"
        }
      ],
      "name": "getBundleBalance1",
      "outputs": [
        {
          "name": "b",
          "type": "uint256"
        }
      ],
      "payable": false,
      "stateMutability": "view",
      "type": "function"
    },
    {
      "constant": true,
      "inputs": [
        {
          "name": "_bundleId",
          "type": "uint256"
        }
      ],
      "name": "getBundleBalance2",
      "outputs": [
        {
          "name": "b",
          "type": "uint256"
        }
      ],
      "payable": false,
      "stateMutability": "view",
      "type": "function"
    },
    {
      "constant": true,
      "inputs": [
        {
          "name": "_bundleId",
          "type": "uint256"
        }
      ],
      "name": "checkBundleOwner",
      "outputs": [
        {
          "name": "b",
          "type": "address"
        }
      ],
      "payable": false,
      "stateMutability": "view",
      "type": "function"
    },
    {
      "constant": true,
      "inputs": [],
      "name": "getBundleCount",
      "outputs": [
        {
          "name": "",
          "type": "uint256"
        }
      ],
      "payable": false,
      "stateMutability": "view",
      "type": "function"
    },
    {
      "constant": true,
      "inputs": [
        {
          "name": "_bundleid",
          "type": "uint256"
        }
      ],
      "name": "checkBalance",
      "outputs": [
        {
          "name": "balance1",
          "type": "uint256"
        }
      ],
      "payable": false,
      "stateMutability": "view",
      "type": "function"
    },
    {
      "constant": false,
      "inputs": [
        {
          "name": "_bundleid",
          "type": "uint256"
        }
      ],
      "name": "registerSubscriber",
      "outputs": [],
      "payable": false,
      "stateMutability": "nonpayable",
      "type": "function"
    },
    {
      "constant": true,
      "inputs": [
        {
          "name": "_bundleId",
          "type": "uint256"
        }
      ],
      "name": "getSubscriberCount",
      "outputs": [
        {
          "name": "",
          "type": "uint256"
        }
      ],
      "payable": false,
      "stateMutability": "view",
      "type": "function"
    },
    {
      "constant": false,
      "inputs": [
        {
          "name": "_bundleId",
          "type": "uint256"
        }
      ],
      "name": "unregisterSubscriber",
      "outputs": [],
      "payable": false,
      "stateMutability": "nonpayable",
      "type": "function"
    },
    {
      "constant": true,
      "inputs": [],
      "name": "getSubscriberTime",
      "outputs": [
        {
          "name": "diff",
          "type": "uint256"
        }
      ],
      "payable": false,
      "stateMutability": "view",
      "type": "function"
    },
    {
      "constant": false,
      "inputs": [
        {
          "name": "_bundleId",
          "type": "uint256"
        }
      ],
      "name": "subscriberClaim",
      "outputs": [],
      "payable": false,
      "stateMutability": "nonpayable",
      "type": "function"
    },
    {
      "constant": true,
      "inputs": [],
      "name": "checkSubscriberClaim",
      "outputs": [
        {
          "name": "success",
          "type": "bool"
        }
      ],
      "payable": false,
      "stateMutability": "view",
      "type": "function"
    }
  ],
  "bytecode": "0x608060405234801561001057600080fd5b5060006009819055506000600a81905550600060088190555033600b60006101000a81548173ffffffffffffffffffffffffffffffffffffffff021916908373ffffffffffffffffffffffffffffffffffffffff16021790555060006002819055506000600381905550611984806100896000396000f30060806040526004361061013e576000357c0100000000000000000000000000000000000000000000000000000000900463ffffffff168063065710ae146101435780631220c6ed1461018657806318a36501146101c95780632143625c146101f657806323b4cede146102215780632ff35057146102785780633408f73a146102a757806334e6b29c146102d25780635a26a61b1461031357806367963cde14610354578063723331bb1461037f5780637f286286146103c0578063832880e714610401578063960be54a1461042c5780639b4b409c146104b75780639b537d1f146104e4578063a377328814610525578063ab15022614610552578063ca7f937a14610581578063cdbce03d146105ac578063d699c750146105db578063dc75a6bd14610608578063f14474cf14610649578063f5ae35c61461068a575b600080fd5b34801561014f57600080fd5b50610184600480360381019080803573ffffffffffffffffffffffffffffffffffffffff1690602001909291905050506106f7565b005b34801561019257600080fd5b506101c7600480360381019080803573ffffffffffffffffffffffffffffffffffffffff16906020019092919050505061073b565b005b3480156101d557600080fd5b506101f460048036038101908080359060200190929190505050610837565b005b34801561020257600080fd5b5061020b610c07565b6040518082815260200191505060405180910390f35b34801561022d57600080fd5b50610236610c11565b604051808273ffffffffffffffffffffffffffffffffffffffff1673ffffffffffffffffffffffffffffffffffffffff16815260200191505060405180910390f35b34801561028457600080fd5b5061028d610c19565b604051808215151515815260200191505060405180910390f35b3480156102b357600080fd5b506102bc610cfb565b6040518082815260200191505060405180910390f35b3480156102de57600080fd5b506102fd60048036038101908080359060200190929190505050610d05565b6040518082815260200191505060405180910390f35b34801561031f57600080fd5b5061033e60048036038101908080359060200190929190505050610d28565b6040518082815260200191505060405180910390f35b34801561036057600080fd5b50610369610d4b565b6040518082815260200191505060405180910390f35b34801561038b57600080fd5b506103aa60048036038101908080359060200190929190505050610dfb565b6040518082815260200191505060405180910390f35b3480156103cc57600080fd5b506103eb60048036038101908080359060200190929190505050610e95565b6040518082815260200191505060405180910390f35b34801561040d57600080fd5b50610416610fb2565b6040518082815260200191505060405180910390f35b34801561043857600080fd5b506104b560048036038101908080359060200190929190803590602001909291908035906020019092919080359060200190929190803573ffffffffffffffffffffffffffffffffffffffff169060200190929190803573ffffffffffffffffffffffffffffffffffffffff169060200190929190505050610fbc565b005b3480156104c357600080fd5b506104e260048036038101908080359060200190929190505050611167565b005b3480156104f057600080fd5b5061050f6004803603810190808035906020019092919050505061154f565b6040518082815260200191505060405180910390f35b34801561053157600080fd5b506105506004803603810190808035906020019092919050505061156f565b005b34801561055e57600080fd5b50610567611679565b604051808215151515815260200191505060405180910390f35b34801561058d57600080fd5b506105966116e2565b6040518082815260200191505060405180910390f35b3480156105b857600080fd5b506105c16117e9565b604051808215151515815260200191505060405180910390f35b3480156105e757600080fd5b50610606600480360381019080803590602001909291905050506118c5565b005b34801561061457600080fd5b50610633600480360381019080803590602001909291905050506118cf565b6040518082815260200191505060405180910390f35b34801561065557600080fd5b50610674600480360381019080803590602001909291905050506118f2565b6040518082815260200191505060405180910390f35b34801561069657600080fd5b506106b560048036038101908080359060200190929190505050611915565b604051808273ffffffffffffffffffffffffffffffffffffffff1673ffffffffffffffffffffffffffffffffffffffff16815260200191505060405180910390f35b80600760006101000a81548173ffffffffffffffffffffffffffffffffffffffff021916908373ffffffffffffffffffffffffffffffffffffffff16021790555050565b600b60009054906101000a900473ffffffffffffffffffffffffffffffffffffffff1673ffffffffffffffffffffffffffffffffffffffff163373ffffffffffffffffffffffffffffffffffffffff1614151561079757600080fd5b6000600d6000600954815260200190815260200160002060010160006101000a81548160ff021916908360018111156107cc57fe5b021790555080600d6000600954815260200190815260200160002060010160016101000a81548173ffffffffffffffffffffffffffffffffffffffff021916908373ffffffffffffffffffffffffffffffffffffffff16021790555060016009540160098190555050565b600080600080600080600c600088815260200190815260200160002060040160009054906101000a900473ffffffffffffffffffffffffffffffffffffffff169550600c600088815260200190815260200160002060050160009054906101000a900473ffffffffffffffffffffffffffffffffffffffff1694508573ffffffffffffffffffffffffffffffffffffffff166370a08231336040518263ffffffff167c0100000000000000000000000000000000000000000000000000000000028152600401808273ffffffffffffffffffffffffffffffffffffffff1673ffffffffffffffffffffffffffffffffffffffff168152602001915050602060405180830381600087803b15801561094d57600080fd5b505af1158015610961573d6000803e3d6000fd5b505050506040513d602081101561097757600080fd5b810190808051906020019092919050505093508473ffffffffffffffffffffffffffffffffffffffff166370a08231336040518263ffffffff167c0100000000000000000000000000000000000000000000000000000000028152600401808273ffffffffffffffffffffffffffffffffffffffff1673ffffffffffffffffffffffffffffffffffffffff168152602001915050602060405180830381600087803b158015610a2557600080fd5b505af1158015610a39573d6000803e3d6000fd5b505050506040513d6020811015610a4f57600080fd5b81019080805190602001909291905050509250600091505b600a54821015610bfe573373ffffffffffffffffffffffffffffffffffffffff16600e600084815260200190815260200160002060060160019054906101000a900473ffffffffffffffffffffffffffffffffffffffff1673ffffffffffffffffffffffffffffffffffffffff161415610bf157600e60008381526020019081526020016000206002015442039050600c60008881526020019081526020016000206000015481101515610bf057600c60008881526020019081526020016000206002015484101515610bef57600c60008881526020019081526020016000206003015483101515610bee576002600e600084815260200190815260200160002060060160006101000a81548160ff02191690836003811115610b8657fe5b0217905550600c600088815260200190815260200160002060010154600e600084815260200190815260200160002060040181905550600c600088815260200190815260200160002060010154600e6000848152602001908152602001600020600501819055505b5b5b5b8180600101925050610a67565b50505050505050565b6000600454905090565b600033905090565b600080600090505b600a54811015610cf6573373ffffffffffffffffffffffffffffffffffffffff16600e600083815260200190815260200160002060060160019054906101000a900473ffffffffffffffffffffffffffffffffffffffff1673ffffffffffffffffffffffffffffffffffffffff161415610ce95760026003811115610ca257fe5b600e600083815260200190815260200160002060060160009054906101000a900460ff166003811115610cd157fe5b1415610ce05760019150610cf7565b60009150610cf7565b8080600101915050610c21565b5b5090565b6000600254905090565b6000600c6000838152602001908152602001600020600101549050809050919050565b6000600c6000838152602001908152602001600020600001549050809050919050565b60008060009150600090505b600a54811015610df4573373ffffffffffffffffffffffffffffffffffffffff16600e600083815260200190815260200160002060060160019054906101000a900473ffffffffffffffffffffffffffffffffffffffff1673ffffffffffffffffffffffffffffffffffffffff161415610de757600e600082815260200190815260200160002060020154420391505b8080600101915050610d57565b8191505090565b600081600681905550600b60009054906101000a900473ffffffffffffffffffffffffffffffffffffffff1673ffffffffffffffffffffffffffffffffffffffff163373ffffffffffffffffffffffffffffffffffffffff161415610e67576000600681905550610e8b565b610e6f6117e9565b15610e81576001600681905550610e8a565b60026006819055505b5b6006549050919050565b600080600c600084815260200190815260200160002060040160009054906101000a900473ffffffffffffffffffffffffffffffffffffffff1690508073ffffffffffffffffffffffffffffffffffffffff166370a08231336040518263ffffffff167c0100000000000000000000000000000000000000000000000000000000028152600401808273ffffffffffffffffffffffffffffffffffffffff1673ffffffffffffffffffffffffffffffffffffffff168152602001915050602060405180830381600087803b158015610f6c57600080fd5b505af1158015610f80573d6000803e3d6000fd5b505050506040513d6020811015610f9657600080fd5b8101908080519060200190929190505050915081915050919050565b6000600654905090565b85600c600060045481526020019081526020016000206000018190555084600c600060045481526020019081526020016000206001018190555083600c600060045481526020019081526020016000206002018190555082600c600060045481526020019081526020016000206003018190555081600c6000600454815260200190815260200160002060040160006101000a81548173ffffffffffffffffffffffffffffffffffffffff021916908373ffffffffffffffffffffffffffffffffffffffff16021790555080600c6000600454815260200190815260200160002060050160006101000a81548173ffffffffffffffffffffffffffffffffffffffff021916908373ffffffffffffffffffffffffffffffffffffffff1602179055506000600c600060045481526020019081526020016000206006018190555033600c6000600454815260200190815260200160002060070160006101000a81548173ffffffffffffffffffffffffffffffffffffffff021916908373ffffffffffffffffffffffffffffffffffffffff160217905550600160045401600481905550505050505050565b600080600080600c600086815260200190815260200160002060040160009054906101000a900473ffffffffffffffffffffffffffffffffffffffff169350600c600086815260200190815260200160002060050160009054906101000a900473ffffffffffffffffffffffffffffffffffffffff1692508373ffffffffffffffffffffffffffffffffffffffff166370a08231336040518263ffffffff167c0100000000000000000000000000000000000000000000000000000000028152600401808273ffffffffffffffffffffffffffffffffffffffff1673ffffffffffffffffffffffffffffffffffffffff168152602001915050602060405180830381600087803b15801561127a57600080fd5b505af115801561128e573d6000803e3d6000fd5b505050506040513d60208110156112a457600080fd5b810190808051906020019092919050505091508273ffffffffffffffffffffffffffffffffffffffff166370a08231336040518263ffffffff167c0100000000000000000000000000000000000000000000000000000000028152600401808273ffffffffffffffffffffffffffffffffffffffff1673ffffffffffffffffffffffffffffffffffffffff168152602001915050602060405180830381600087803b15801561135257600080fd5b505af1158015611366573d6000803e3d6000fd5b505050506040513d602081101561137c57600080fd5b81019080805190602001909291905050509050600c6000868152602001908152602001600020600201548210151561154857600c600086815260200190815260200160002060030154811015156115475781600e6000600a5481526020019081526020016000206000018190555080600e6000600a5481526020019081526020016000206001018190555084600e6000600a5481526020019081526020016000206003018190555042600e6000600a548152602001908152602001600020600201819055506000600e6000600a548152602001908152602001600020600401819055506000600e6000600a548152602001908152602001600020600501819055506000600e6000600a54815260200190815260200160002060060160006101000a81548160ff021916908360038111156114b257fe5b021790555033600e6000600a54815260200190815260200160002060060160016101000a81548173ffffffffffffffffffffffffffffffffffffffff021916908373ffffffffffffffffffffffffffffffffffffffff160217905550600a60008154809291906001019190505550600c6000868152602001908152602001600020600601600081548092919060010191905055505b5b5050505050565b6000600c6000838152602001908152602001600020600601549050919050565b60008090505b600a54811015611675573373ffffffffffffffffffffffffffffffffffffffff16600e600083815260200190815260200160002060060160019054906101000a900473ffffffffffffffffffffffffffffffffffffffff1673ffffffffffffffffffffffffffffffffffffffff1614156116685781600e600083815260200190815260200160002060030154141561166757600c600083815260200190815260200160002060060160008154809291906001900391905055506001600e600083815260200190815260200160002060060160006101000a81548160ff0219169083600381111561166157fe5b02179055505b5b8080600101915050611575565b5050565b6000600b60009054906101000a900473ffffffffffffffffffffffffffffffffffffffff1673ffffffffffffffffffffffffffffffffffffffff163373ffffffffffffffffffffffffffffffffffffffff1614156116da57600190506116df565b600090505b90565b600080600760009054906101000a900473ffffffffffffffffffffffffffffffffffffffff1690508073ffffffffffffffffffffffffffffffffffffffff166370a08231336040518263ffffffff167c0100000000000000000000000000000000000000000000000000000000028152600401808273ffffffffffffffffffffffffffffffffffffffff1673ffffffffffffffffffffffffffffffffffffffff168152602001915050602060405180830381600087803b1580156117a557600080fd5b505af11580156117b9573d6000803e3d6000fd5b505050506040513d60208110156117cf57600080fd5b810190808051906020019092919050505091508191505090565b60008060009150600090505b6009548110156118be573373ffffffffffffffffffffffffffffffffffffffff16600d600083815260200190815260200160002060010160019054906101000a900473ffffffffffffffffffffffffffffffffffffffff1673ffffffffffffffffffffffffffffffffffffffff1614156118b1576000600181111561187657fe5b600d600083815260200190815260200160002060010160009054906101000a900460ff1660018111156118a557fe5b14156118b057600191505b5b80806001019150506117f5565b8191505090565b8060028190555050565b6000600c6000838152602001908152602001600020600201549050809050919050565b6000600c6000838152602001908152602001600020600301549050809050919050565b6000600c600083815260200190815260200160002060070160009054906101000a900473ffffffffffffffffffffffffffffffffffffffff1690508090509190505600a165627a7a7230582056f864e45facab9fef482866dac7005c940726345c3700e6a6caad9349aa6dd10029",
  "source": "pragma solidity ^0.4.24;\n\nimport \"openzeppelin-solidity/contracts/token/ERC20/StandardToken.sol\";\n\ncontract BundleTokens {\n\naddress token1addr;\naddress token2addr;\n\nuint storedData;\nuint bonus;\nuint bundleCount;\n\n// test\nuint  test1;\nuint userId;\naddress test2;\n\n// Number of bundles\nuint countBundles;\n\n// Number of bundle owners\nuint countOwners;\n\n// Number of subscribers\nuint countSubscribers;\n\n//webapp administrator\naddress private admin;\n\n// Bundle state\nenum bundleState {Active, Close, MissingFunds}\n\n// BundleOwnerState\nenum ownerState {Registered, Unregistered}\n\n// BundleSubscribersState\nenum subscriberState {Registered, Unregistered,Claimed, Paid}\n\n\n// Subcribers only can subscribe to one bundle at a time \nstruct Subscribers {\n    uint balance1;\n    uint balance2;\n    uint time;\n    uint bundleId;\n    uint bonus1;\n    uint bonus2;\n    subscriberState state;\n    address owner;\n}\n\nstruct Owners {\n    uint bundleId;\n    ownerState state;\n    address owner;\n}\n\n// bundle\nstruct Bundle {\n        uint time;\n        uint bonus;\n        uint balance1;\n        uint balance2;\n        address token1;\n        address token2;\n        uint count;\n        address owner;\n}\n\n\n// bundles\nmapping (uint => Bundle) bundles;\n\n// bundle owners\nmapping  (uint => Owners) owners;\n\n// bundle subscribers\nmapping  (uint => Subscribers) subscribers;\n\n\nconstructor() public {\n       countOwners=0;\n       countSubscribers=0;\n       countBundles=0; \n       admin=msg.sender;\n       storedData=0;\n       bonus=0;\n}\n\n// Modifiers\nmodifier verifyAdmin () { require (msg.sender == admin); _;}\n\n/*\nmodifier verifyOwnerRegistered (address _address) { require (owners[_address].state==ownerState.Registered); _;}\nmodifier verifySubscriberNotRegistered (address _address) { require (subscribers[_address].state!=subscriberState.Registered); _;}\nmodifier verifySubscriberRegistered (address _address) { require (subscribers[_address].state==subscriberState.Registered); _;}\nmodifier verifySubscriber (address _token, uint _bundleId) { require (subscribers[_token].bundleId==_bundleId); _;}\n*/\n\nfunction setStorage(uint x)\n    public\n{\n    storedData = x;\n}\n\nfunction getStorage()\n    public\n    view\n    returns (uint)\n{\n    return storedData;\n}\n\nfunction getUser()\n    public\n    view\n    returns(uint user)\n{\n    return userId;\n}\n\n// Check User\nfunction checkUser(uint x)\n    public\n    returns (uint) // 0: admin, 1:owner 2:subscriber\n{\n  userId=x;\n  if (msg.sender == admin){\n     userId=0;\n  }else{\n            if (checkOwner()){\n                userId=1;\n            }else{\n                userId=2;\n            }\n  }\n  return userId;\n}\n\n\n// Verify Admin\nfunction checkAdmin()\n    external \n    view\n    returns (bool success)\n{\n  if (msg.sender == admin){\n    return true;\n  }else{\n    return false;  \n  }\n}\n\n// Register a bundler owner\nfunction registerOwner(address _owner) \n    public\n    verifyAdmin()\n{\n  owners[countOwners].state=ownerState.Registered;\n  owners[countOwners].owner=_owner;\n  countOwners=countOwners+1;\n}\n\n\n// Verify Owner\n\nfunction checkOwner()\n    view\n    public\n    returns (bool success)\n{\n  success=false;\n  for (uint i = 0; i < countOwners; i++) {\n        if (owners[i].owner==msg.sender){\n           if (owners[i].state == ownerState.Registered ){\n                success=true;\n           }\n        }\n  }\n  return success;\n}\n\n/*\nfunction checkOwner()\n    external \n    view\n    returns (bool success)\n{\n  if (owners[msg.sender].state == ownerState.Registered ){\n    return true;\n  }else{\n    return false;  \n  }\n}\n*/\n\n// check sender bundle\nfunction checksender()\n    view\n    public\n    returns (address)\n{\n    return(msg.sender);\n}\n\n// check storage\nfunction writestorage(address _symbol)\n    public\n{\n    test2=_symbol;\n}\n\n// check storage\nfunction checkstorage()\n    view\n    public\n    returns (uint b)\n{\n    StandardToken token2 = StandardToken(test2);\n    b=token2.balanceOf(msg.sender);\n    return(b);\n}\n\n\n// Register bundle\nfunction registerBundle(uint _mintime, uint _bonus, uint _balance1, uint _balance2, address _token1, address _token2)\n    public\n{\n    bundles[bundleCount].time=_mintime;\n    bundles[bundleCount].bonus=_bonus;\n    bundles[bundleCount].balance1=_balance1;\n    bundles[bundleCount].balance2=_balance2;\n    bundles[bundleCount].token1=_token1;\n    bundles[bundleCount].token2=_token2;\n    bundles[bundleCount].count=0;\n    bundles[bundleCount].owner=msg.sender;\n    bundleCount=bundleCount+1;\n}\n\nfunction getBundleBonus(uint _bundleId)\n    view\n    public\n    returns (uint b)\n{\n    b=bundles[_bundleId].bonus;\n    return b;\n}\n\nfunction getBundleTime(uint _bundleId)\n    view\n    public\n    returns (uint b)\n{\n    b=bundles[_bundleId].time;\n    return b;\n}\n\nfunction getBundleBalance1(uint _bundleId)\n    view\n    public\n    returns (uint b)\n{\n    b=bundles[_bundleId].balance1;\n    return b;\n}\n\nfunction getBundleBalance2(uint _bundleId)\n    view\n    public\n    returns (uint b)\n{\n    b=bundles[_bundleId].balance2;\n    return b;\n}\n\n// check bundle owner\nfunction checkBundleOwner(uint _bundleId)\n    view\n    public\n    returns (address b)\n{\n    b=bundles[_bundleId].owner;\n    return(b);\n}\n\n\n// Get number of bundles\n  function getBundleCount()\n    public\n    view\n    returns(uint)\n{\n    return(bundleCount);\n}\n\n// check balance of tokens\nfunction checkBalance(uint _bundleid)\n    public\n    view\n    returns(uint balance1)\n{\n    StandardToken token1 = StandardToken(bundles[_bundleid].token1);\n    balance1=token1.balanceOf(msg.sender);\n    return (balance1);\n}\n\n\n// register subscriber to bundle\nfunction registerSubscriber(uint _bundleid)\n    public\n    //verifysubscribernotregistered(msg.sender)\n{\n    StandardToken token1 = StandardToken(bundles[_bundleid].token1);\n    StandardToken token2 = StandardToken(bundles[_bundleid].token2);\n    uint balance1=token1.balanceOf(msg.sender);\n    uint balance2=token2.balanceOf(msg.sender);\n\n   if (balance1>=bundles[_bundleid].balance1)\n     {\n     if (balance2>=bundles[_bundleid].balance2){\n        subscribers[countSubscribers].balance1= balance1;\n        subscribers[countSubscribers].balance2= balance2;\n        subscribers[countSubscribers].bundleId= _bundleid;\n        subscribers[countSubscribers].time= now;\n        subscribers[countSubscribers].bonus1= 0;\n        subscribers[countSubscribers].bonus2= 0;\n        subscribers[countSubscribers].state= subscriberState.Registered;\n        subscribers[countSubscribers].owner= msg.sender;\n        countSubscribers++;\n        bundles[_bundleid].count++;\n\n     }\n     }\n}\n\n\n// Get number of subscribers\nfunction getSubscriberCount(uint _bundleId)\n    public\n    view\n    returns(uint)\n{\n    return(bundles[_bundleId].count);\n}\n\n\n// Unregister Subscriber to bundle\nfunction unregisterSubscriber(uint _bundleId)\n    public\n    //verifySubscriberRegistered(msg.sender)\n{\n    for (uint i = 0; i < countSubscribers; i++) {\n        if (subscribers[i].owner==msg.sender){\n            if (subscribers[i].bundleId==_bundleId){\n                bundles[_bundleId].count--;\n                subscribers[i].state=subscriberState.Unregistered;\n            }\n        }\n    }\n}\n\n// Get time from fist subscribed\n  function getSubscriberTime()\n    public\n    view\n    returns(uint diff)\n{\n    diff=0;\n    for (uint i = 0; i < countSubscribers; i++) {\n            if (subscribers[i].owner==msg.sender){\n                diff = (now - subscribers[i].time); // seconds https://www.unixtimestamp.com/index.php\n            }\n    }\n    return(diff);\n}\n\n// Subscriber Bundle Claim\nfunction subscriberClaim(uint _bundleId)\n    external\n    //verifySubscriber (msg.sender,_bundleId)\n{\n    StandardToken token1 = StandardToken(bundles[_bundleId].token1);\n    StandardToken token2 = StandardToken(bundles[_bundleId].token2);\n    uint balance1=token1.balanceOf(msg.sender);\n    uint balance2=token2.balanceOf(msg.sender);\n\n    for (uint i = 0; i < countSubscribers; i++) {\n                if (subscribers[i].owner==msg.sender){\n                    uint diff = (now - subscribers[i].time) ; // time in seconds\n                    if (diff >= bundles[_bundleId].time){\n                        if (balance1>=bundles[_bundleId].balance1)\n                        {\n                            if (balance2>=bundles[_bundleId].balance2){\n                                subscribers[i].state=subscriberState.Claimed;\n                                subscribers[i].bonus1=bundles[_bundleId].bonus;\n                                subscribers[i].bonus2=bundles[_bundleId].bonus;\n                            }\n                        }\n                    }\n                }\n    }\n}\n\n// Verify Subscriber Claim\nfunction checkSubscriberClaim()\n    external\n    view\n    returns (bool success)\n{\n for (uint i = 0; i < countSubscribers; i++) {\n    if (subscribers[i].owner==msg.sender){\n        if (subscribers[i].state == subscriberState.Claimed ){\n            return true;\n        }else{\n            return false;\n        }\n    }\n }\n}\n\n}\n\n",
  "sourcePath": "/Users/jcsancho/Dropbox/smartcontracts/airdrops/airdrops/contracts/BundleTokens.sol",
  "compiler": {
    "name": "solc",
    "version": "0.4.24+commit.e67f0147.Emscripten.clang"
  },
  "schemaVersion": "2.0.0",
  "updatedAt": "2018-08-27T17:41:34.848Z"
}